:020000040800F2
:10000000A852002029020008E9340008A52F0008A2
:10001000E5340008BD050008013D000800000000AF
:100020000000000000000000000000005D35000836
:10003000D10500080000000059350008B53500085A
:10004000430200084302000843020008430200087C
:100050004302000843020008D505000843020008D7
:10006000430200084302000843020008430200085C
:10007000430200084302000843020008430200084C
:10008000430200084302000821040008430200085C
:10009000C1050008430200084302000843020008AB
:1000A000430200089136000843020008430200089A
:1000B000430200084302000843020008430200080C
:1000C00043020008430200084302000843020008FC
:1000D00043020008430200084302000843020008EC
:1000E00043020008430200084302000843020008DC
:1000F00043020008430200084302000843020008CC
:1001000043020008430200084302000843020008BB
:100110004302000843020008A13600084302000819
:10012000430200084302000843020008430200089B
:10013000430200084302000843020008430200088B
:10014000430200084302000843020008430200087B
:10015000430200084302000843020008430200086B
:10016000430200084302000843020008430200085B
:100170004302000843020008430200080000000098
:10018000430200084302000800F002F800F03CF8C7
:100190000AA090E8000C82448344AAF10107DA45E2
:1001A00001D100F031F8AFF2090EBAE80F0013F0F8
:1001B000010F18BFFB1A43F0010318472C3D000044
:1001C0004C3D0000103A24BF78C878C1FAD85207D5
:1001D00024BF30C830C144BF04680C6070470000C1
:1001E0000023002400250026103A28BF78C1FBD840
:1001F000520728BF30C148BF0B6070471FB503F0DE
:100200005DFE1FBD10B510BD00F0D0F81146FFF720
:10021000F5FF03F0D7FD00F0EEF803B4FFF7F2FFAF
:1002200003BC00F0F5F80000094880470948004782
:10023000FEE7FEE7FEE7FEE7FEE7FEE7FEE7FEE796
:10024000FEE7FEE704480549054A064B70470000F3
:100250007D36000889010008A8020020A85200206D
:10026000A8120020A812002053EA020C00F06980B6
:100270002DE9F04B4FF00006002B1FBFB3FA83F5BA
:1002800003FA05F424FA05F65E4012BF1643B2FAEB
:1002900082F502FA05F4C5F120051EBF22FA05FC1D
:1002A00044EA0C04203556EA044C4FEA144418BFC3
:1002B000641C4FF000084FF00009904271EB030CF2
:1002C00039D3002919BFB1FA81F701FA07F6B0FA5C
:1002D00080F700FA07F6C7F120071EBF20FA07FCD7
:1002E00046EA0C062037B6FBF4FCA7EB0507103FE7
:1002F00007F01F0BCBF120062CFA06F60CFA0BFBCD
:1003000044BFB3460026202FA4BF5E464FF0000B2B
:100310005BEA060C08BF4FF0010B19EB0B0948EB29
:100320000608ABFB027C06FB02CC0BFB03CCC01B1C
:1003300071EB0C01C1E70B46024641464846BDE859
:10034000F08B13B5084318BF4FF0FF300146AFF3F1
:100350000080BDE81C4070474FF0000200B5134616
:1003600094469646203922BFA0E80C50A0E80C50D5
:10037000B1F12001BFF4F7AF090728BFA0E80C5086
:1003800048BF0CC05DF804EB890028BF40F8042B7F
:1003900008BF704748BF20F8022B11F0804F18BFEC
:1003A00000F8012B7047704770477047754600F0A2
:1003B0002BF8AE4605006946534620F007008546F7
:1003C00018B020B5FFF73EFFBDE820404FF0000613
:1003D0004FF000074FF000084FF0000BAC46ACE8C0
:1003E000C009ACE8C009ACE8C009ACE8C00921F01C
:1003F00007018D46704710B50446AFF300802046D4
:10040000BDE81040FFF709BF00487047100000200A
:1004100001491820ABBEFEE726000200704700002D
:1004200080B540F27000C2F2000000F0F9F980BD22
:1004300082B0019042F20030C4F2010000900099B5
:10044000486820F440304860019842680099486844
:100450001043486001980168486820F48070486043
:10046000019801680269486840EA022048600198E2
:100470000168486820F0407048600198016882680F
:1004800048681043486001980168886820F400605B
:10049000886001980168C268886810438860019884
:1004A000806A0121C0F60071884219D0FFE70198E7
:1004B0000168886820F07060886001980168826A2D
:1004C00088681043886001980168886820F040506F
:1004D000886001980168C26A8868104388600CE0EF
:1004E00001980168886820F0706088600198016850
:1004F000886820F040508860FFE7019801688868AC
:1005000020F0020088600198027E0168886840EA55
:1005100042008860019890F82000C8B1FFE7019878
:100520000168486840F400604860019801684868C4
:1005300020F46040486001980168426A4EF2000071
:10054000CFF6FF7000EB423248681043486006E087
:1005500001980168486820F400604860FFE701984E
:100560000168C86A20F47000C86201980168C26915
:100570000020CFF6F07000EB0252C86A1043C86248
:1005800001980168886820F400708860019890F8EC
:1005900030200168886840EA42208860019801683C
:1005A000886820F4806088600198016842698868E2
:1005B00040EA8220886002B070470000FFE7FEE753
:1005C00080B540F2B800C2F2000000F0E3FA80BD4E
:1005D0007047000080B5012000F072FE80BD000071
:1005E00081B0EFF3108072B60090FFE7FEE70000E5
:1005F00081B0009001B0704785B003900291002057
:100600000190FFE7039890F83C00012804D1FFE730
:1006100002208DF81300F7E00399012081F83C00D7
:10062000FFE7FFE7029800680A281CD3FFE702985B
:10063000008800EB4000A0F11E01072000FA01F243
:1006400003980168C8689043C8600299886809885F
:1006500001EB41011E3900FA01F203980168C868F4
:100660001043C86018E00298008800EB40010720A2
:1006700000FA01F203980168086990430861029941
:100680008868098801EB410100FA01F203980168CA
:10069000086910430861FFE70298406806281BD8E4
:1006A000FFE70298406800EB8000411F1F2000FA1E
:1006B00001F203980168486B9043486302990888E7
:1006C000496801EB8101053900FA01F203980168DC
:1006D000486B104348633DE0029840680C281CD8E2
:1006E000FFE70298406800EB8000A0F123011F2083
:1006F00000FA01F203980168086B904308630299BD
:100700000888496801EB8101233900FA01F2039856
:100710000168086B104308631BE00298406800EB17
:100720008000A0F141011F2000FA01F20398016846
:10073000C86A9043C86202990888496801EB810140
:10074000413900FA01F203980168C86A1043C8628F
:10075000FFE7FFE742F20030C4F201000090039887
:10076000006842F20001C4F2010188420BD1FFE7A8
:1007700002980068122806D1FFE70099486840F403
:1007800080004860FFE70398006842F20001C4F26D
:10079000010188422ED1FFE702980068102805D099
:1007A000FFE702980068112824D1FFE70099486804
:1007B00040F40000486002980068102819D1FFE753
:1007C00040F20000C2F2000000684DF68361C4F2FE
:1007D0001B31A0FB0110800C00EB80004000019059
:1007E000FFE7019820B1FFE7019801380190F8E791
:1007F000FFE7FFE7FFE70399002081F83C00FFE7F0
:1008000000208DF81300FFE79DF8130005B0704736
:1008100081B0009001B0704781B0009001B0704786
:1008200080B586B00590002004900390059800687C
:10083000006802900598006840680190029800F0F6
:1008400002000490019800F0200003900498002812
:100850004AD0FFE70398002846D0FFE70598006CD0
:10086000C006002806D4FFE70599086C40F4007024
:100870000864FFE705980068806810F0405F2AD19F
:10088000FFE70598007E30BBFFE705980068C06A67
:1008900010F4700F07D0FFE70598006880684005E6
:1008A000002818D4FFE705980168486820F0200068
:1008B00048600599086C20F4807008640598006C05
:1008C000C004002806D4FFE70599086C40F0010039
:1008D0000864FFE7FFE70598FFF79AFF05980168AE
:1008E0006FF012000860FFE7029800F00400049027
:1008F000019800F0800003900498002858D0FFE78A
:100900000398002854D0FFE70598006CC006002823
:1009100006D4FFE70599086C40F400500864FFE72F
:1009200005980068806810F4401F38D1FFE70598EB
:100930000068806B10F4401F07D0FFE7059800683F
:100940008068400500282AD4FFE7059800684068C1
:100950004005002823D4FFE705980068806810F060
:10096000405F1CD1FFE70598007EC0B9FFE70598FE
:100970000168486820F0800048600599086C20F400
:10098000805008640598006CC005002806D4FFE775
:100990000599086C40F001000864FFE7FFE705983F
:1009A000FFF726FE059801686FF00C000860FFE76E
:1009B000029800F001000490019800F040000390BC
:1009C0000498C0B1FFE70398A8B1FFE70598006855
:1009D0000068C00770B1FFE70599086C40F48030EB
:1009E0000864059800F07EF8059801686FF0010032
:1009F0000860FFE7FFE7029800F0200004900198EC
:100A000000F0806003900498B0B1FFE7039898B1BC
:100A1000FFE70599486C40F00200486405980168BA
:100A20006FF02000009008600598FFF7F5FE009831
:100A3000059909680860FFE706B080BD80B584B0FD
:100A4000029000208DF80700029820B9FFE70120EE
:100A50008DF80F0042E00298806A0121C0F6007113
:100A6000884201D0FFE7FFE70298006C50B9FFE72A
:100A7000029800F03BF8029900204864029981F83E
:100A80003C00FFE70298006CC006002817D4FFE77F
:100A90000298006C40F0020020F48850029908642B
:100AA0000298FFF7C5FC0299002048640298006C88
:100AB00040F0010020F002000299086403E00120E8
:100AC0008DF80700FFE7FFE70299002081F83C005E
:100AD000FFE79DF807008DF80F00FFE79DF80F0076
:100AE00004B080BD81B0009001B0704780B58AB07D
:100AF00009900020089007900690059004900998AE
:100B0000006842F20021C4F2010188423BD1FFE7B4
:100B1000FFE70020039043F64400C4F2020001689E
:100B200041F480610160006800F4806003900398E4
:100B3000FFE7FFE70020029043F63000C4F2020016
:100B4000016841F020010160006800F0200002907F
:100B50000298FFE74FF48060049003200590002086
:100B60000090069041F20040C4F2020004A900F097
:100B7000C3FB009A12200190114600F077FE019805
:100B800000F06AFEFFE70AB080BD000081B000906F
:100B900001B0704780B58AB009900020089009988C
:100BA00000684069079009980068406806900998B5
:100BB00000688068059009980068C06804900998EA
:100BC00000680069039009980068806902909DF8A8
:100BD0001C00C007002800F09480FFE79DF8140077
:100BE000C00758B3FFE709980168012088609DF8A5
:100BF00014008007002804D5FFE7099800F020FBC7
:100C00001BE09DF814004007002805D5FFE7089871
:100C100040F4006008900FE09DF8140000070028E1
:100C200005D5FFE7089840F48050089003E0099844
:100C300000F002FBFFE7FFE7FFE7FFE79DF8150085
:100C4000C00760B3FFE7099801684FF480708860BF
:100C50009DF815008007002804D5FFE7099800F0EB
:100C6000F7FA1BE09DF815004007002805D5FFE7BF
:100C7000089840F4005008900FE09DF81500000718
:100C8000002805D5FFE7089840F48040089003E06D
:100C9000099800F0D9FAFFE7FFE7FFE7FFE79DF8C3
:100CA0001600C00760B3FFE7099801684FF4803071
:100CB00088609DF816008007002804D5FFE7099892
:100CC00000F0CEFA1BE09DF816004007002805D57D
:100CD000FFE7089840F4004008900FE09DF81600E8
:100CE0000007002805D5FFE7089840F480300890F9
:100CF00003E0099800F0B0FAFFE7FFE7FFE7FFE73E
:100D0000FFE79DF81C000007002810D5FFE79DF8BD
:100D10001000C006002809D5FFE7089840F40070CD
:100D20000890099801681020C860FFE7FFE79DF868
:100D30001C00400700280FD5FFE79DF810000007B2
:100D4000002808D5FFE7099801680820C8600998BD
:100D500000F05EFAFFE7FFE79DF81C00800700281F
:100D60000BD5FFE709980068C068800720B1FFE74E
:100D7000099800F051FAFFE7FFE79DF81C004006D4
:100D8000002810D5FFE79DF80C00C006002809D503
:100D9000FFE7089840F480600890099801681020E7
:100DA0000861FFE7FFE79DF81C00800600280FD5CB
:100DB000FFE79DF80C000007002808D5FFE7099819
:100DC000016808200861099800F02AFAFFE7FFE7A8
:100DD0009DF81C00C00600280BD5FFE709980068A5
:100DE0000069800720B1FFE7099800F01DFAFFE7CE
:100DF000FFE79DF81E00800700280FD5FFE79DF84C
:100E00001800C006002808D5FFE7099801681020DF
:100E10004860099800F00CFAFFE7FFE79DF81E0014
:100E2000C00778B1FFE79DF818000007002808D533
:100E3000FFE70998016808204860099800F014FA53
:100E4000FFE7FFE79DF81D000006002840F18D80B8
:100E5000FFE79DF818004007002840F18180FFE778
:100E60009DF81D00C00750B1FFE79DF80800C007BE
:100E700028B1FFE7089840F001000890FFE79DF8CF
:100E80001D00800700280BD5FFE79DF808008007AC
:100E9000002805D5FFE7089840F002000890FFE71A
:100EA0009DF81D00400700280BD5FFE79DF80800BE
:100EB0004007002805D5FFE7089840F00400089097
:100EC000FFE79DF81D000007002848D5FFE79DF8C3
:100ED000080010F0700F42D0FFE7029800F0700099
:100EE00001460191102814D0FFE70198202815D061
:100EF000FFE70198302816D0FFE70198402817D067
:100F0000FFE70198502818D0FFE70198602819D012
:100F10001DE0089840F00800089019E0089840F09B
:100F20001000089014E0089840F0200008900FE0AE
:100F3000089840F0400008900AE0089840F08000CF
:100F4000089005E0089840F48070089000E0FFE702
:100F500009980168886920F070008861FFE7FFE761
:100F60000998016804204860FFE7089848B1FFE746
:100F7000089A0999486A104348620998FFF706FEE3
:100F8000FFE70AB080BD000080B584B002900298EF
:100F900020B9FFE701208DF80F00E0E0029890F8FB
:100FA000200020B9FFE7029800F0DEF8FFE7029882
:100FB0000168086840F00100086000F079FB0190CA
:100FC000FFE7029800684068C007A8B9FFE700F093
:100FD0006FFB0199401A0B280DD3FFE70299486A6D
:100FE00040F4003048620299052081F82000012079
:100FF0008DF80F00B3E0E4E702980168086820F07C
:101000000200086000F054FB0190FFE702980068BE
:1010100040688007002815D5FFE700F049FB0199DB
:10102000401A0B280DD3FFE70299486A40F40030BC
:1010300048620299052081F8200001208DF80F00F8
:101040008DE0E3E70298007E012807D1FFE70298D0
:101050000168086840F08000086006E002980168B6
:10106000086820F080000860FFE70298407E0128B1
:1010700007D1FFE702980168086840F04000086067
:1010800006E002980168086820F040000860FFE769
:101090000298807E012807D1FFE70298016808685E
:1010A00040F02000086006E002980168086820F01F
:1010B00020000860FFE70298C07E012807D1FFE703
:1010C00002980168086820F01000086006E00298A5
:1010D0000168086840F010000860FFE70298007F90
:1010E000012807D1FFE702980168086840F008006E
:1010F000086006E002980168086820F008000860AF
:10110000FFE70298407F012807D1FFE702980168B6
:10111000086840F00400086006E00298016808686A
:1011200020F004000860FFE7029B19685A6898687D
:10113000D3F80CC040EA0C00D3F810C040EA0C0011
:101140005B691843013A1043C86102990020486264
:10115000029A012182F820108DF80F00FFE79DF818
:101160000F0004B080BD000080B58AB00990002057
:10117000089007900690059004900998006846F240
:101180000041C4F2000188423FD1FFE7FFE70020A1
:10119000039043F64000C4F20200016841F0007180
:1011A0000160006800F0007003900398FFE7FFE71C
:1011B0000020029043F63000C4F20200016841F0C2
:1011C00002010160006800F0020002900298FFE74F
:1011D0004FF440700490022005900020009006908B
:1011E000032007900920089040F20040C4F202005A
:1011F00004A900F081F8009A14200190114600F033
:1012000035FB019800F028FBFFE70AB080BD000025
:1012100081B0009001B0704781B0009001B070477C
:1012200081B0009001B0704781B0009001B070476C
:1012300081B0009001B0704781B0009001B070475C
:1012400081B0009001B0704781B0009001B070474C
:1012500081B0009001B0704781B0009001B070473C
:1012600081B0009001B0704781B0009001B070472C
:1012700080B584B0039000F01BFA029003980190AF
:101280000198013048B1FFE740F20400C2F20000CB
:101290000178019808440190FFE7FFE700F008FAA1
:1012A0000299401A0199884201D2FFE7F6E704B09B
:1012B00080BD000081B0ADF8020001B070470000B1
:1012C00080B582B0ADF8060043F61440C4F20100C8
:1012D0000068BDF8061008420CD0FFE7BDF8060014
:1012E00043F61441C4F201010860BDF80600FFF79F
:1012F000E1FFFFE702B080BD8EB00D900C910020A1
:101300000A90099008900B90FFE70B980F2800F2C5
:10131000CC81FFE70B99012088400A900C98006867
:101320000A990840099009980A99884240F0B881C2
:10133000FFE70C98406800F00300012807D0FFE7A2
:101340000C98406800F0030002282FD1FFE70D98A9
:10135000806808900B984100032000FA01F108987A
:10136000884308900C98C0680B99490000FA01F175
:1013700008980843089008980D9988600D9840686F
:1013800008900B99012000FA01F108988843089011
:101390000C984068C0F300100B9900FA01F108980E
:1013A0000843089008980D994860FFE70C9840683A
:1013B00000F00300032818D0FFE70D98C0680890DC
:1013C0000B984100032000FA01F108988843089027
:1013D0000C9880680B99490000FA01F108980843BD
:1013E000089008980D99C860FFE70C98406800F0D5
:1013F0000300022826D1FFE70D980B996FF0030236
:1014000002EA51010844006A08900B9800F00700B6
:1014100081000F2000FA01F10898884308900C9889
:1014200000690B9901F00701890000FA01F10898A1
:101430000843089008980D990B9B02EA5302114447
:101440000862FFE70D98006808900B9841000320A0
:1014500000FA01F10898884308900C98406800F061
:1014600003000B99490000FA01F10898084308901D
:1014700008980D9908600C9880798007002800F082
:101480000E81FFE7FFE70020079043F64400C4F217
:101490000200016841F480410160006800F480406E
:1014A00007900798FFE70B9820F0030043F6080128
:1014B000C4F20101405808900B9800F0030081002D
:1014C0000F2000FA01F10898884308900D98002138
:1014D000C4F20201884203D1FFE7002006905EE0DB
:1014E0000D9840F20041C4F20201884203D1FFE7A7
:1014F0000120059050E00D9840F60001C4F2020171
:10150000884203D1FFE70220049042E00D9840F6A4
:101510000041C4F20201884203D1FFE70320039097
:1015200034E00D9841F20001C4F20201884203D177
:10153000FFE70420029026E00D9841F20041C4F23A
:101540000201884203D1FFE70520019018E00D98C1
:1015500041F60001C4F20201884203D1FFE70620F0
:1015600000900AE00D9941F60042C4F20202082000
:10157000914208BF07200090FFE700980190FFE725
:1015800001980290FFE702980390FFE70398049008
:10159000FFE704980590FFE705980690FFE7069897
:1015A000C0B20B9901F00301890000FA01F108981B
:1015B0000843089008980B9921F0030143F60802AC
:1015C000C4F20102885043F60840C4F201000068EA
:1015D000089009990898884308900C988079C0066B
:1015E000002805D5FFE70999089808430890FFE708
:1015F000089843F60841C4F20101086043F60C4024
:10160000C4F201000068089009990898884308907E
:101610000C9880798006002805D5FFE7099908987D
:1016200008430890FFE7089843F60C41C4F2010113
:10163000086043F60440C4F201000068089009996C
:101640000898884308900C9880798007002805D571
:10165000FFE70999089808430890FFE7089843F6C0
:101660000441C4F20101086043F60040C4F20100E5
:101670000068089009990898884308900C98807928
:10168000C00728B1FFE70999089808430890FFE7C9
:10169000089843F60041C4F201010860FFE7FFE744
:1016A000FFE70B9801300B902FE60EB0704700005B
:1016B00040F2A020C2F200000068704780B584B0FC
:1016C0000290029820B9FFE701208DF80F0037E063
:1016D000029801684CF6CC4008600298016845F217
:1016E0005550086002980168406848600298016897
:1016F00080688860FFF7DCFF0190FFE702980068D0
:10170000C068800798B1FFE7FFF7D2FF0199401A40
:1017100032280BD3FFE702980068C068800720B129
:10172000FFE703208DF80F000AE0FFE7E6E70298E5
:1017300001684AF6AA20086000208DF80F00FFE734
:101740009DF80F0004B080BD40F20400C2F200001A
:10175000027840F2A021C2F200010868104408603B
:101760007047000080B543F60041C4F202010868EA
:1017700040F400700860086840F480600860086801
:1017800040F480700860032000F08AF80F2000F019
:1017900005F800F03BF8002080BD000080B582B065
:1017A000009040F20000C2F20000006840F2040124
:1017B000C2F200010A784FF47A71B1FBF2F1B0FB8A
:1017C000F1F000F07BFD20B1FFE701208DF807006C
:1017D00018E000980F280DD8FFE700994FF0FF3070
:1017E000002200F043F8009840F20801C2F2000124
:1017F000086003E001208DF8070003E000208DF869
:101800000700FFE79DF8070002B080BD82B0FFE748
:101810000020019043F64400C4F20200016841F444
:1018200080410160006800F4804001900198FFE76A
:10183000FFE70020009043F64000C4F20200016878
:1018400041F080510160006800F0805000900098E5
:10185000FFE702B07047000080B582B08DF8070046
:101860009DF9070002F04EFA02B080BD80B586B047
:101870008DF81700049103920020029002F05AFAAA
:1018800002909DF91700019002980499039A01F0C3
:101890002DFE0146019802F055FA06B080BD000009
:1018A00080B582B00190019802F06EFA02B080BD5E
:1018B00080B584B002900191029820B9FFE7012021
:1018C0008DF80F0021E1019843F60041C4F20201B6
:1018D000096801F00701884212D9FFE7019943F630
:1018E0000040C4F202000170006800F00700019996
:1018F000884204D0FFE701208DF80F0005E1FFE7E3
:1019000002980078800700282AD5FFE7029800781F
:101910004007002809D5FFE743F60801C4F2020199
:10192000086840F4E0500860FFE70298007800077C
:10193000002809D5FFE743F60801C4F20201086850
:1019400040F460400860FFE743F60801C4F202017A
:10195000086820F0F000029A926810430860FFE7E0
:1019600002980078C00700286ED0FFE70298406810
:10197000012811D1FFE743F60000C4F2020000681D
:1019800000F400310020B0EB514F04D1FFE70120FB
:101990008DF80F00B9E02CE002984068022805D0CD
:1019A000FFE702984068032811D1FFE743F60000E3
:1019B000C4F20200006800F000710020B0EB516F2B
:1019C00004D1FFE701208DF80F009EE010E043F600
:1019D0000000C4F20200006800F002010020B0EB39
:1019E000510F04D1FFE701208DF80F008DE0FFE7D4
:1019F000FFE743F60801C4F20201086820F0030083
:101A0000029A526810430860FFF752FE0090FFE709
:101A100043F60800C4F20200006800F00C000299CE
:101A20004968B0EB810F0ED0FFE7FFF741FE009948
:101A3000401A41F28931884204D3FFE703208DF830
:101A40000F0062E0E4E7FFE7019843F60041C4F2CB
:101A50000201096801F00701884212D2FFE70199EB
:101A600043F60040C4F202000170006800F0070075
:101A70000199884204D0FFE701208DF80F0044E06F
:101A8000FFE702980078400700280CD5FFE743F6EF
:101A90000801C4F20201086820F4E050029AD268FA
:101AA00010430860FFE702980078000700280DD572
:101AB000FFE743F60801C4F20201086820F4604021
:101AC000029A126940EAC2000860FFE700F022F8BB
:101AD00043F60801C4F202010968C9B20A0943F6D3
:101AE000D661C0F60001895CC84040F20001C2F234
:101AF0000001086040F20800C2F200000068FFF731
:101B00004DFE00208DF80F00FFE79DF80F0004B098
:101B100080BD000080B586B0002005900490039041
:101B2000029043F60800C4F20200006800F00C00C6
:101B30000146019140B1FFE7019804280AD0FFE770
:101B4000019808280CD04FE042F20040C0F2F400A7
:101B500002904FE041F60030C0F2B700029049E039
:101B600043F60400C4F20200016801F03F01059150
:101B700000684002002813D5FFE743F60400C4F2D2
:101B800002000068C0F3881041F60031C0F2B701CE
:101B9000A0FB0101059A0023FEF766FB049012E00A
:101BA00043F60400C4F202000068C0F3881042F259
:101BB0000041C0F2F401A0FB0101059A0023FEF7E9
:101BC00053FB0490FFE743F60400C4F202000068F0
:101BD00000F44031022000EBD130039004980399C7
:101BE000B0FBF1F0029005E042F20040C0F2F400D8
:101BF0000290FFE7029806B080BD000080B586B075
:101C00000490049820B9FFE701208DF8170050E3F5
:101C100004980078C007002800F0A580FFE743F68D
:101C20000800C4F20200006800F00C00042813D081
:101C3000FFE743F60800C4F20200006800F00C0061
:101C400008281ED1FFE743F60400C4F20200006832
:101C50004002002815D5FFE743F60000C4F2020059
:101C6000006800F400310020B0EB514F08D0FFE7CE
:101C70000498406820B9FFE701208DF8170018E3A9
:101C800070E0FFE704984068B0F5803F09D1FFE7B6
:101C900043F60001C4F20201086840F48030086095
:101CA00020E004984068B0F5A02F0DD1FFE743F67F
:101CB0000001C4F20201086840F48020086008684E
:101CC00040F4803008600CE043F60001C4F20201E9
:101CD000086820F480300860086820F480200860DC
:101CE000FFE7FFE7FFE704984068E8B1FFE7FFF789
:101CF000DFFC0390FFE743F60000C4F20200006837
:101D000000F400310020B0EB514F0CD1FFE7FFF79A
:101D1000CFFC0399401A652804D3FFE703208DF810
:101D20001700C6E2E7E71CE0FFF7C2FC0390FFE7FD
:101D300043F60000C4F20200006800F40031002005
:101D4000B0EB514F0CD0FFE7FFF7B2FC0399401AFC
:101D5000652804D3FFE703208DF81700A9E2E7E721
:101D6000FFE7FFE7FFE7049800788007002840F1CD
:101D70009680FFE743F60800C4F20200006810F006
:101D80000C0F13D0FFE743F60800C4F2020000680E
:101D900000F00C0008282CD1FFE743F60400C4F241
:101DA000020000684002002823D4FFE743F6000049
:101DB000C4F20200006800F002010020B0EB510FF5
:101DC00009D0FFE70498C068012804D0FFE701208C
:101DD0008DF817006DE243F60001C4F202010868B5
:101DE00020F0F800049A126940EAC2000860FFE798
:101DF00054E00498C06870B3FFE70021C4F24721A3
:101E000001200860FFF754FC0390FFE743F6000051
:101E1000C4F20200006800F002010020B0EB510F94
:101E20000CD1FFE7FFF744FC0399401A032804D3C1
:101E3000FFE703208DF817003BE2E7E743F60001D8
:101E4000C4F20201086820F0F800049A126940EA1E
:101E5000C200086021E00021C4F247210020086090
:101E6000FFF726FC0390FFE743F60000C4F20200F0
:101E7000006800F002010020B0EB510F0CD0FFE72A
:101E8000FFF716FC0399401A032804D3FFE7032049
:101E90008DF817000DE2E7E7FFE7FFE7FFE704989B
:101EA0000078000700284BD5FFE70498406918B375
:101EB000FFE740F68061C4F2472101200860FFF788
:101EC000F7FB0390FFE743F67400C4F202000068DA
:101ED00000F002010020B0EB510F0CD1FFE7FFF73B
:101EE000E7FB0399401A032804D3FFE703208DF88A
:101EF0001700DEE1E7E722E040F68061C4F2472107
:101F000000200860FFF7D4FB0390FFE743F674005E
:101F1000C4F20200006800F002010020B0EB510F93
:101F20000CD0FFE7FFF7C4FB0399401A032804D342
:101F3000FFE703208DF81700BBE1E7E7FFE7FFE7C6
:101F4000049800784007002840F1CE80FFE7002089
:101F50008DF8070043F64000C4F202000068C0009C
:101F6000002815D4FFE7FFE70020009043F640006B
:101F7000C4F20200016841F080510160006800F085
:101F8000805000900098FFE701208DF80700FFE7E0
:101F900047F20000C4F200000068C005002822D407
:101FA000FFE747F20001C4F20001086840F48070C6
:101FB0000860FFF77DFB0390FFE747F20000C4F2E3
:101FC00000000068C00500280CD4FFE7FFF770FB95
:101FD0000399401A032804D3FFE703208DF8170064
:101FE00067E1EAE7FFE7FFE704988068012809D185
:101FF000FFE743F67001C4F20201086840F00100F7
:1020000008601FE00498806805280DD1FFE743F6BB
:102010007001C4F20201086840F00400086008681A
:1020200040F0010008600CE043F67001C4F20201C8
:10203000086820F001000860086820F004000860CB
:10204000FFE7FFE7FFE704988068F8B1FFE7FFF7D5
:102050002FFB0390FFE743F67000C4F20200006814
:1020600000F002010020B0EB510F0ED1FFE7FFF7A7
:102070001FFB0399401A41F28931884204D3FFE7DC
:1020800003208DF8170014E1E5E71EE0FFF710FBD1
:102090000390FFE743F67000C4F20200006800F00E
:1020A00002010020B0EB510F0ED0FFE7FFF700FB5D
:1020B0000399401A41F28931884204D3FFE7032093
:1020C0008DF81700F5E0E5E7FFE79DF80700012828
:1020D00009D1FFE743F64001C4F20201086820F08D
:1020E00080500860FFE7FFE704988069002800F04F
:1020F000DC80FFE743F60800C4F20200006800F04D
:102100000C00082800F08580FFE704988069022809
:102110005CD1FFE76021C4F2472100200860FFF78F
:10212000C7FA0390FFE743F60000C4F2020000681C
:1021300000F000710020B0EB516F0CD0FFE7FFF70B
:10214000B7FA0399401A032804D3FFE703208DF858
:102150001700AEE0E7E70499C869D1F820C04B6AE0
:102160008A6A40EA0C0040EA8310D2034FF6FF73FC
:102170009A43A2F580321043C96A40EA016043F6EF
:102180000401C4F2020108606021C4F24721012069
:102190000860FFF78DFA0390FFE743F60000C4F2F2
:1021A0000200006800F000710020B0EB516F0CD10C
:1021B000FFE7FFF77DFA0399401A032804D3FFE7EE
:1021C00003208DF8170074E0E7E721E06021C4F2F6
:1021D000472100200860FFF76BFA0390FFE743F602
:1021E0000000C4F20200006800F000710020B0EBB3
:1021F000516F0CD0FFE7FFF75BFA0399401A0328F1
:1022000004D3FFE703208DF8170052E0E7E7FFE76C
:102210004AE004988069012804D1FFE701208DF885
:10222000170046E043F60400C4F202000068029082
:1022300004988069012831D0FFE7029800F48000FB
:102240000499C969884229D1FFE7029800F03F004C
:102250000499096A884221D1FFE7029847F6C071C4
:1022600008400499496AB0EB811F17D1FFE7029833
:1022700000F440300499896AC9034FF6FF72914314
:10228000A1F58031884209D1FFE7029800F0706023
:102290000499C96AB0EB016F04D0FFE701208DF803
:1022A000170006E0FFE7FFE7FFE700208DF81700C3
:1022B000FFE79DF8170006B080BD000080B582B032
:1022C0000190019801F04CF902B080BD81B00090FE
:1022D00001B0704781B0009001B0704785B00390A5
:1022E0000291FFE7039890F83C00012804D1FFE732
:1022F00002208DF813007EE00399012081F83C0054
:10230000FFE7FFE70399022081F83D00039800688A
:10231000406801900398006880680090019820F060
:10232000700001900298016801980843019001989B
:10233000039909684860039800680021C4F201010C
:1023400088423CD0FFE703980068B0F1804F36D058
:10235000FFE70398006840F20041C4F200018842A0
:102360002DD0FFE70398006840F60001C4F2000199
:10237000884224D0FFE70398006840F60041C4F289
:10238000000188421BD0FFE70398006840F200413B
:10239000C4F20101884212D0FFE70398006844F2BA
:1023A0000001C4F20101884209D0FFE703980068E8
:1023B00041F60001C4F2000188420ED1FFE7009807
:1023C00020F0800000900298416800980843009037
:1023D0000098039909688860FFE70399012081F854
:1023E0003D00FFE70399002081F83C00FFE7002053
:1023F0008DF81300FFE79DF8130005B0704700004B
:1024000080B582B00090009820B9FFE701208DF8D8
:1024100007003FE0009890F83D0040B9FFE70099C1
:10242000002081F83C00009800F038F8FFE70099A0
:10243000022081F83D00009951F8040B01F038F9B1
:102440000099012081F84600FFE70099012081F8FA
:102450003E00009981F83F00009981F84000009902
:1024600081F84100FFE7FFE70099012081F8420071
:10247000009981F84300009981F84400009981F89F
:102480004500FFE70099012081F83D0000208DF80C
:102490000700FFE79DF8070002B080BD80B590B04F
:1024A0000F9000200E900D900C900B900A900F98BA
:1024B00000680021C4F2010188421BD1FFE7FFE759
:1024C0000020099043F64400C4F20200016841F084
:1024D00001010160006800F0010009900998FFE720
:1024E0001920029000221146FFF7C0F90298FFF769
:1024F000B3F9B5E00F98006840F20041C4F2000162
:10250000884233D1FFE7FFE70020089043F6400000
:10251000C4F20200016841F002010160006800F0AD
:10252000020008900898FFE7FFE70020079043F6B5
:102530003000C4F20200016841F00401016000684B
:1025400000F0040007900798FFE74FF480700A90AE
:1025500002200B9000210C910D910E9040F600008E
:10256000C4F202000AA9FEF7C7FE78E00F980068DF
:1025700040F60001C4F20001884212D1FFE7FFE7F4
:102580000020069043F64000C4F20200016841F0CA
:1025900004010160006800F0040006900698FFE75F
:1025A0005CE00F98006840F60041C4F200018842E8
:1025B00012D1FFE7FFE70020059043F64000C4F288
:1025C0000200016841F008010160006800F00800A5
:1025D00005900598FFE740E00F98006841F2000180
:1025E000C4F2000188421BD1FFE7FFE700200490FE
:1025F00043F64000C4F20200016841F0100101609E
:10260000006800F0100004900498FFE73620019065
:1026100000221146FFF72AF90198FFF71DF91BE088
:102620000F98006841F20041C4F20001884212D1C3
:10263000FFE7FFE70020039043F64000C4F20200EA
:10264000016841F020010160006800F02000039063
:102650000398FFE7FFE7FFE7FFE7FFE7FFE7FFE795
:1026600010B080BD83B00190019890F83D00012822
:1026700004D0FFE701208DF80B006AE001990220E9
:1026800081F83D0001980168C86840F00100C86009
:10269000019800680021C4F2010188423CD0FFE7A4
:1026A00001980068B0F1804F36D0FFE701980068CC
:1026B00040F20041C4F2000188422DD0FFE70198AA
:1026C000006840F60001C4F20001884224D0FFE710
:1026D0000198006840F60041C4F2000188421BD016
:1026E000FFE70198006840F20041C4F2010188420E
:1026F00012D0FFE70198006844F20001C4F2010122
:10270000884209D0FFE70198006841F60001C4F251
:102710000001884212D1FFE701980068806800F04C
:10272000070000900098062807D0FFE7019801688D
:10273000086840F001000860FFE706E001980168C2
:10274000086840F001000860FFE700208DF80B00EA
:10275000FFE79DF80B0003B07047000080B586B01E
:102760000490039100208DF80B00FFE7049890F887
:102770003C00012804D1FFE702208DF81700ABE0F0
:102780000499012081F83C00FFE7FFE7049902204B
:1027900081F83D000498006880680190019820F05D
:1027A00077000190019820F47F40019001980499EE
:1027B00009688860039800680090002872D0FFE7DD
:1027C000009810286ED0FFE7009820286AD0FFE715
:1027D0000098302866D0FFE70098402855D0FFE7E2
:1027E0000098502837D0FFE70098602840D0FFE7D6
:1027F000009870280BD0FFE70098B0F5805F05D0F7
:10280000FFE70098B0F5005F16D052E055E004985D
:102810000068039B5A689968DB6801F033F80498F4
:10282000006880680190019840F07700019001985D
:1028300004990968886040E004980068039B5A681E
:102840009968DB6801F01EF804980168886840F414
:102850008040886031E004980068039A5168D2682B
:1028600001F0FCF904980068502101F025F824E0FB
:1028700004980068039A5168D26801F017FA049826
:102880000068602101F018F817E004980068039AC6
:102890005168D26801F0E2F904980068402101F023
:1028A0000BF80AE0049800680399096801F004F83D
:1028B00003E001208DF80B00FFE70499012081F867
:1028C0003D00FFE70499002081F83C00FFE79DF8F8
:1028D0000B008DF81700FFE79DF8170006B080BDCC
:1028E00081B0009001B0704780B582B0019001982E
:1028F0000068006900F002010020B0EB510F28D001
:10290000FFE701980068C06800F002010020B0EB0A
:10291000510F1DD0FFE7019801686FF002000861B8
:10292000019901200877019800688069800720B12B
:10293000FFE70198FFF7D4FF06E0019800F048F99F
:10294000019800F03DFAFFE7019900200877FFE7C2
:10295000FFE701980068006900F004010020B0EB77
:10296000910F29D0FFE701980068C06800F00401CA
:102970000020B0EB910F1ED0FFE7019801686FF0C7
:1029800004000861019902200877019800688069B5
:1029900010F4407F04D0FFE70198FFF7A1FF06E0A5
:1029A000019800F015F9019800F00AFAFFE7019983
:1029B00000200877FFE7FFE701980068006900F052
:1029C00008010020B0EBD10F28D0FFE70198006884
:1029D000C06800F008010020B0EBD10F1DD0FFE768
:1029E000019801686FF008000861019904200877D8
:1029F00001980068C069800720B1FFE70198FFF7E0
:102A00006FFF06E0019800F0E3F8019800F0D8F9B4
:102A1000FFE7019900200877FFE7FFE701980068CA
:102A2000006900F010010020B0EB111F29D0FFE772
:102A300001980068C06800F010010020B0EB111F81
:102A40001ED0FFE7019801686FF01000086101993E
:102A50000820087701980068C06910F4407F04D00E
:102A6000FFE70198FFF73CFF06E0019800F0B0F89F
:102A7000019800F0A5F9FFE7019900200877FFE72A
:102A8000FFE7019800680069C00780B1FFE701987F
:102A90000068C068C00748B1FFE7019801686FF09F
:102AA00001000861019800F075FAFFE7FFE701985F
:102AB00000680069C1B20020B0EBD11F13D0FFE75E
:102AC00001980068C068C1B20020B0EBD11F09D0E6
:102AD000FFE7019801686FF0800008610198FFF737
:102AE000F5FBFFE7FFE701980068006900F040018F
:102AF0000020B0EB911F14D0FFE701980068C06878
:102B000000F040010020B0EB911F09D0FFE70198D1
:102B100001686FF040000861019800F03FFAFFE79C
:102B2000FFE701980068006900F020010020B0EB89
:102B3000511F14D0FFE701980068C06800F0200121
:102B40000020B0EB511F09D0FFE7019801686FF03A
:102B5000200008610198FFF7BDFBFFE7FFE702B027
:102B600080BD000080B588B00790002006900590D9
:102B70000490039002900798006840F60041C4F268
:102B80000001884222D1FFE7FFE70020019043F6D1
:102B90003000C4F20200016841F080010160006869
:102BA00000F0800001900198FFE74FF4E0500290A0
:102BB00002200390002104910591069041F6004007
:102BC000C4F2020002A9FEF797FBFFE708B080BD40
:102BD00081B0009001B0704780B586B00490039139
:102BE000029200208DF80700FFE7049890F83C005F
:102BF000012804D1FFE702208DF8170089E004992D
:102C0000012081F83C00FFE7FFE7029800900C28C4
:102C100000F270800099DFE801F0076D6D6D206DA6
:102C20006D6D3A6D6D6D530004980068039900F066
:102C300059FE04980168886940F00800886104988A
:102C40000168886920F0040088610398026904988B
:102C5000016888691043886150E00498006803990E
:102C600000F0B6FE04980168886940F4006088614D
:102C700004980168886920F480608861039802697B
:102C800004980168886940EA0220886136E0049867
:102C90000068039900F016FF04980168C86940F0C5
:102CA0000800C86104980168C86920F00400C86180
:102CB0000398026904980168C8691043C8611DE05F
:102CC00004980068039900F077FF04980168C869C8
:102CD00040F40060C86104980168C86920F480600D
:102CE000C8610398026904980168C86940EA022033
:102CF000C86103E001208DF80700FFE7FFE70499B2
:102D0000002081F83C00FFE79DF807008DF81700D0
:102D1000FFE79DF8170006B080BD000080B582B0C7
:102D20000090009820B9FFE701208DF807003FE0F0
:102D3000009890F83D0040B9FFE70099002081F825
:102D40003C00009800F038F8FFE70099022081F875
:102D50003D00009951F8040B00F0AAFC00990120F5
:102D600081F84600FFE70099012081F83E000099B4
:102D700081F83F00009981F84000009981F84100F6
:102D8000FFE7FFE70099012081F84200009981F8F0
:102D90004300009981F84400009981F84500FFE75D
:102DA0000099012081F83D0000208DF80700FFE721
:102DB0009DF8070002B080BD81B0009001B070475F
:102DC00081B0009001B0704780B58CB00A90099135
:102DD000099828B9FFE70A9890F83E0007901CE090
:102DE0000998042805D1FFE70A9890F83F0006905B
:102DF00010E00998082805D1FFE70A9890F84000EC
:102E0000059004E00A9890F841000590FFE70598C6
:102E10000690FFE706980790FFE70798012804D07F
:102E2000FFE701208DF82F00AFE0099828B9FFE7F0
:102E30000A99022081F83E001EE00998042806D174
:102E4000FFE70A99022081F83F00049012E00998F8
:102E5000082806D1FFE70A99022081F84000039074
:102E600005E00A99022081F841000390FFE70398EA
:102E70000490FFE70498FFE70A9800680999012287
:102E8000019200F0E3FC01980A9909680022C4F25B
:102E90000102914202900CD0FFE70A9800684FF6B9
:102EA0000041CBF6FE710844B0FA80F04009029070
:102EB000FFE70298C00738B1FFE70A980168486C3D
:102EC00040F400404864FFE70A9800680021C4F21B
:102ED000010188423CD0FFE70A980068B0F1804FBA
:102EE00036D0FFE70A98006840F20041C4F20001C2
:102EF00088422DD0FFE70A98006840F60001C4F22E
:102F00000001884224D0FFE70A98006840F600419B
:102F1000C4F2000188421BD0FFE70A98006840F223
:102F20000041C4F20101884212D0FFE70A9800680C
:102F300044F20001C4F20101884209D0FFE70A9877
:102F4000006841F60001C4F20001884212D1FFE797
:102F50000A980068806800F0070008900898062822
:102F600007D0FFE70A980168086840F00100086090
:102F7000FFE706E00A980168086840F00100086071
:102F8000FFE700208DF82F00FFE79DF82F000CB021
:102F900080BD000081B0009001B0704781B000900A
:102FA00001B07047FFE7FEE780B586B000220092CF
:102FB000059204920392029240F27000C2F2000065
:102FC000019042F20021C4F2010101604FF480310E
:102FD000416082600261027680F820204FF08051CB
:102FE000C1624FF000618162C2600121C16180F85D
:102FF00030204161FDF722FD18B1FFE7FDF7F0FA3F
:10300000FFE708200290012003900220049040F284
:103010007000C2F2000002A9FDF7EEFA18B1FFE756
:10302000FDF7DEFAFFE706B080BD000080B582B094
:1030300040F2B800C2F20000009046F20041C4F233
:103040000001016010214160002101918160C16097
:1030500001614161017641768176C17601774177E0
:10306000FDF792FF18B1FFE7FDF7BAFAFFE702B0EC
:1030700080BD000080B58CB000200B900A900990B4
:1030800008900790FFE70020069043F63000C4F256
:103090000200016841F002010160006800F00200D6
:1030A00006900698FFE7FFE70020059043F6300002
:1030B000C4F20200016841F001010160006800F003
:1030C000010005900598FFE7FFE70020049043F614
:1030D0003000C4F20200016841F080010160006824
:1030E00000F0800004900498FFE7FFE700200390C1
:1030F00043F63000C4F20200016841F004010160AF
:10310000006800F0040003900398FFE7FFE7002049
:10311000029043F63000C4F20200016841F0200141
:103120000160006800F0200002900298FFE7012093
:1031300007904FF40411089109900020C4F2020096
:1031400007A9FEF7D9F80620019000221146FEF7E4
:103150008DFB0198FEF780FB0CB080BD80B540F27E
:10316000E000C2F2000043F20001C4F2000101607D
:103170000321416040F2FF118160FEF79FFA18B110
:10318000FFE7FDF72DFAFFE780BD000080B588B0AE
:1031900000210091079106910591049103910291FC
:1031A00040F2EC00C2F2000001900022C4F20102E1
:1031B000026042F2CF024260816042F20F72C2604E
:1031C000016141618161FFF71BF918B1FFE7FDF76C
:1031D00007FAFFE74FF48050049040F2EC00C2F28F
:1031E000000004A9FFF7BAFA18B1FFE7FDF7F8F9F4
:1031F000FFE700200290039040F2EC00C2F20000D2
:1032000002A9FFF76BF818B1FFE7FDF7E9F9FFE74F
:1032100008B080BD80B588B000210191079106916A
:10322000059104910391029140F23410C2F2000022
:1032300040F20042C4F200020260416081604FF639
:10324000FF72C26001618161FFF7DAF818B1FFE730
:10325000FDF7C6F9FFE74FF48050049040F23410B8
:10326000C2F2000004A9FFF779FA18B1FFE7FDF7F1
:10327000B7F9FFE7202002900020039040F23410BD
:10328000C2F2000002A9FFF729F818B1FFE7FDF725
:10329000A7F9FFE708B080BD80B588B00021019193
:1032A00007910691059104910391029140F27C10DF
:1032B000C2F2000040F60002C4F200020260532293
:1032C0004260816042F20F72C260016180218161BF
:1032D000FFF796F818B1FFE7FDF782F9FFE74FF423
:1032E0008050049040F27C10C2F2000004A9FFF765
:1032F00035FA18B1FFE7FDF773F9FFE700200290F8
:10330000039040F27C10C2F2000002A9FEF7E6FF33
:1033100018B1FFE7FDF764F9FFE708B080BD0000D2
:1033200080B58EB0002100910D910C910B910A9106
:1033300009910891079106910591049103910291D9
:10334000019140F2C410C2F2000040F60042C4F203
:1033500000020260416081604FF4FA72C260016154
:103360008161FFF74DF818B1FFE7FDF739F9FFE785
:103370004FF480500A9040F2C410C2F200000AA933
:10338000FFF7ECF918B1FFE7FDF72AF9FFE740F284
:10339000C410C2F20000FFF7C1FC18B1FFE7FDF74F
:1033A0001FF9FFE700200890099040F2C410C2F214
:1033B000000008A9FEF792FF18B1FFE7FDF710F92A
:1033C000FFE760200190002202920392059240F2F2
:1033D000C410C2F2000001A9FFF7FEFB18B1FFE71D
:1033E000FDF7FEF8FFE740F2C410C2F2000001A9A9
:1033F0000422FFF7F1FB18B1FFE7FDF7F1F8FFE753
:1034000040F2C410C2F2000001A90822FFF7E4FB59
:1034100018B1FFE7FDF7E4F8FFE740F2C410C2F28D
:103420000000FFF79FFB0EB080BD000080B582B0AA
:1034300000210191009140F20C20C2F2000041F203
:103440000002C4F20002026053224260816040F236
:10345000E732C2608161FEF7D3FF18B1FFE7FDF7E5
:10346000BFF8FFE700200090019040F20C20C2F26C
:1034700000006946FEF732FF18B1FFE7FDF7B0F82C
:10348000FFE702B080BD000080B582B0002101914D
:10349000009140F25420C2F2000041F20042C4F216
:1034A0000002026053224260816040F2E732C26053
:1034B0008161FEF7A5FF18B1FFE7FDF791F8FFE77F
:1034C00000200090019040F25420C2F200006946B2
:1034D000FEF704FF18B1FFE7FDF782F8FFE702B03F
:1034E00080BD0000FFE7FEE7FFE7FEE788B007903A
:1034F00006910592079800F0070004900498C0F127
:103500000700052803D3FFE70420019004E0049896
:10351000C0F107000190FFE7019803900498043080
:10352000062803D8FFE70020009003E00498033842
:103530000090FFE70098029006980399012202FA92
:1035400001F101390840029B984005999A40013ADF
:103550001140084308B070477047000070470000F2
:1035600080B582B0009000980138B0F1807F03D31D
:10357000FFE70120019019E0009801384EF2140194
:10358000CEF2000108604FF0FF300F2100F0DAFBAF
:103590004EF21801CEF20001002008604EF2100237
:1035A000CEF20002072111600190FFE7019802B0FE
:1035B00080BD000080B5FEF7C7F880BD80B594B02F
:1035C00008A83021FCF7C8FE00200790069005905F
:1035D00004900390FFE70020029043F64000C4F2FD
:1035E0000200016841F080510160006800F08050E5
:1035F00002900298FFE7FFE70020019047F20000E9
:10360000C4F20000016841F480410160006800F4E8
:10361000804001900198FFE7092008904FF4803026
:10362000099001200D9002200E904FF480010F911F
:1036300006211091A821119112900420139008A83E
:10364000FEF7DCFA18B1FFE7FCF7CAFFFFE70F202F
:10365000039002200490002005904FF4A0500690A3
:103660004FF48050079003A80521FEF721F918B107
:10367000FFE7FCF7B5FFFFE714B080BD4EF68851B9
:10368000CEF20001086840F4700008607047000046
:1036900080B540F2EC00C2F20000FFF725F980BDD2
:1036A00080B540F20C20C2F20000FFF71DF980BD8A
:1036B00083B0029001910298006800900298002166
:1036C000C4F20101884225D0FFE70298B0F1804F93
:1036D00020D0FFE7029840F20041C4F20001884286
:1036E00018D0FFE7029840F60001C4F200018842BA
:1036F00010D0FFE7029840F60041C4F20001884272
:1037000008D0FFE7029840F20041C4F2010188426C
:103710000AD1FFE7009820F07000009001984168FE
:10372000009808430090FFE702980021C4F20101CD
:10373000884255D0FFE70298B0F1804F50D0FFE7A4
:10374000029840F20041C4F20001884248D0FFE7ED
:10375000029840F60001C4F20001884240D0FFE721
:10376000029840F60041C4F20001884238D0FFE7D9
:10377000029840F20041C4F20101884230D0FFE7D4
:10378000029844F20001C4F20101884228D0FFE708
:10379000029844F20041C4F20101884220D0FFE7C0
:1037A000029844F60001C4F20101884218D0FFE7F4
:1037B000029841F60001C4F20001884210D0FFE7F0
:1037C000029841F60041C4F20001884208D0FFE7A8
:1037D000029842F20001C4F2000188420AD1FFE7D8
:1037E000009820F4407000900198C1680098084348
:1037F0000090FFE7009820F0800001994969084394
:103800000090009802990860019880680299C86247
:10381000019800680299886202980021C4F20101AF
:10382000884208D0FFE7029840F20041C4F201014B
:10383000884205D1FFE70198006902990863FFE714
:1038400002990120486103B07047000084B00390E2
:1038500002910192029800F01F010120884000901F
:10386000009A0399086A904308620198029901F04E
:103870001F0100FA01F20399086A1043086204B0BC
:103880007047000085B00490039102920193049860
:1038900080680090009820F47F400090039802997F
:1038A000019A41EA022101430098084300900098E0
:1038B0000499886005B0704783B002900191029826
:1038C00080680090009820F07000009001980099A6
:1038D000084340F00700009000980299886003B008
:1038E0007047000085B0049003910499086A20F0A5
:1038F000010008620498006A0190049840680090F2
:10390000049880690290029820F07000029002985A
:1039100020F0030002900398016802980843029087
:10392000019820F0020001900398816801980843F3
:10393000019004980021C4F20101884208D0FFE7F9
:10394000049840F20041C4F2010188420ED1FFE721
:10395000019820F0080001900398C168019808437D
:103960000190019820F004000190FFE704980021E5
:10397000C4F20101884208D0FFE7049840F20041F8
:10398000C4F20101884213D1FFE7009820F480704F
:103990000090009820F4007000900398416900980E
:1039A0000843009003988169009808430090FFE75E
:1039B00000980499486002980499886103984068C7
:1039C0000499486301980499086205B070470000A3
:1039D00085B0049003910499086A20F010000862F1
:1039E0000498006A019004984068009004988069E7
:1039F0000290029820F4E0400290029820F4407077
:103A0000029003980168029840EA01200290019810
:103A100020F02000019003988168019840EA01108D
:103A2000019004980021C4F20101884208D0FFE708
:103A3000049840F20041C4F2010188420FD1FFE72F
:103A4000019820F0800001900398C168019840EA35
:103A500001100190019820F040000190FFE70498C8
:103A60000021C4F20101884208D0FFE7049840F227
:103A70000041C4F20101884215D1FFE7009820F40B
:103A800080600090009820F40060009003984169E5
:103A9000009840EA8100009003988169009840EA0C
:103AA00081000090FFE7009804994860029804990B
:103AB00088610398406804998863019804990862B2
:103AC00005B0704785B0049003910499086A20F40A
:103AD000807008620498006A019004984068009021
:103AE0000498C0690290029820F070000290029839
:103AF00020F00300029003980168029808430290A6
:103B0000019820F40070019003988168019840EAC0
:103B10000120019004980021C4F20101884208D0DC
:103B2000FFE7049840F20041C4F2010188420FD13E
:103B3000FFE7019820F4006001900398C1680198A4
:103B400040EA01200190019820F480600190FFE795
:103B500004980021C4F20101884208D0FFE70498CC
:103B600040F20041C4F20101884215D1FFE70098FC
:103B700020F480500090009820F4005000900398AA
:103B80004169009840EA011000900398816900980B
:103B900040EA01100090FFE70098049948600298FD
:103BA0000499C861039840680499C863019804990E
:103BB000086205B07047000085B004900391049935
:103BC000086A20F4805008620498006A0190049802
:103BD000406800900498C0690290029820F4E04088
:103BE0000290029820F440700290039801680298B5
:103BF00040EA01200290019820F4005001900398BF
:103C00008168019840EA0130019004980021C4F2D3
:103C10000101884208D0FFE7049840F20041C4F255
:103C2000010188420BD1FFE7009820F4804000900A
:103C300003984169009840EA81100090FFE70098DE
:103C40000499486002980499C861039840680499EF
:103C5000086401980499086205B0704785B0049023
:103C6000039102920498006A00900499086A20F077
:103C700001000862049880690190019820F0F0002A
:103C800001900299019840EA01100190009820F0FB
:103C90000A00009003990098084300900198049945
:103CA000886100980499086205B0704785B0049057
:103CB000039102920499086A20F0100008620498A7
:103CC000806901900498006A0090019820F4704087
:103CD00001900299019840EA01300190009820F08B
:103CE000A00000900399009840EA0110009001980C
:103CF0000499886100980499086205B07047000033
:103D0000FFE7FEE781B08DF803009DF9030000286E
:103D10000ED4FFE79DF9031001F01F02012090402F
:103D20004A094EF20011CEF2000141F82200FFE7ED
:103D300001B070474EF60C50CEF200000068C0F3A0
:103D40000220704782B08DF8070000919DF90700AE
:103D500000280AD4FFE7009800019DF907104EF2F1
:103D60000042CEF2000288540BE0009800019DF85A
:103D7000071001F00F014EF61452CEF200028854E3
:103D8000FFE702B07047000083B00290029800F095
:103D9000070000904EF60C51CEF200010868019029
:103DA00001984FF6FF02104001900198009A40EAF6
:103DB00002200022C0F2FA521043019001980860DC
:103DC00003B0704780B584B0002001900390FDF7E8
:103DD000C9FCFFF7F3FBFFF74DF9FFF7D7F9FFF742
:103DE000E3F8FFF723F9FFF7B9F9FFF713FAFFF745
:103DF00053FAFFF795FAFFF719FBFFF745FB40F27F
:103E0000EC00C2F20000FEF72DFC019940F2C41054
:103E1000C2F200000290FEF7D7FF02980421FEF7DD
:103E2000D3FF02980821FEF7CFFFFFE7FFE740F23C
:103E30009C20C2F200000088B0F5FA7F18DAFFE794
:103E400040F29C20C2F2000001880131018002880A
:103E500040F2C411C2F200010B685A6302880B6879
:103E60009A6300880968C8630A20FDF701FADEE753
:103E7000FFE740F29C20C2F200000088012818DB16
:103E8000FFE740F29C20C2F2000001880139018066
:103E9000028840F2C411C2F200010B685A63028822
:103EA0000B689A6300880968C8630A20FDF7E0F987
:103EB000DFE741F28830FDF7DBF9B7E7F1EE100AF2
:103EC0004FF6FF71C0F2C03120EA010040F04070AF
:103ED000E1EE100A7047000000000000000001023F
:103EE0000304060708090000083F0008000000203E
:103EF00010000000C4010008183F00081000002056
:103F000098520000E00100080024F40001000000C5
:083F1000100000000000000099
:040000050800018965
:00000001FF
