:020000040800F2
:10000000D856002029020008294E0008FD420008A9
:10001000254E0008AD0500088D5B000800000000BB
:100020000000000000000000000000009D4E0008DD
:100030009907000800000000994E0008F54E0008DE
:10004000430200084302000843020008430200087C
:1000500043020008430200089D070008430200080D
:10006000430200084302000843020008430200085C
:10007000430200084302000843020008430200084C
:10008000430200084302000843020008430200083C
:10009000B1050008C105000843020008430200083A
:1000A00043020008D14F0008430200084302000841
:1000B000430200084302000843020008430200080C
:1000C00043020008430200084302000843020008FC
:1000D000430200086D5B0008430200084302000869
:1000E00043020008430200084302000843020008DC
:1000F00043020008430200084302000843020008CC
:1001000043020008430200084302000843020008BB
:100110004302000843020008E14F0008F14F0008C5
:10012000F105000801060008110600082106000874
:10013000430200084302000843020008430200088B
:10014000D1050008E1050008430200084302000849
:100150004302000831060008410600087D5B0008E4
:10016000430200084302000843020008430200085B
:100170004302000843020008430200080000000098
:10018000430200084302000800F002F800F03CF8C7
:100190000AA090E8000C82448344AAF10107DA45E2
:1001A00001D100F031F8AFF2090EBAE80F0013F0F8
:1001B000010F18BFFB1A43F001031847645B0000EE
:1001C000845B0000103A24BF78C878C1FAD852077F
:1001D00024BF30C830C144BF04680C6070470000C1
:1001E0000023002400250026103A28BF78C1FBD840
:1001F000520728BF30C148BF0B6070471FB505F0DC
:1002000071FD1FBD10B510BD00F0D0F81146FFF70D
:10021000F5FF05F01DFD00F0EEF803B4FFF7F2FF67
:1002200003BC00F0F5F80000094880470948004782
:10023000FEE7FEE7FEE7FEE7FEE7FEE7FEE7FEE796
:10024000FEE7FEE704480549054A064B70470000F3
:10025000BD4F000889010008D8060020D8560020AC
:10026000D8160020D816002053EA020C00F069804E
:100270002DE9F04B4FF00006002B1FBFB3FA83F5BA
:1002800003FA05F424FA05F65E4012BF1643B2FAEB
:1002900082F502FA05F4C5F120051EBF22FA05FC1D
:1002A00044EA0C04203556EA044C4FEA144418BFC3
:1002B000641C4FF000084FF00009904271EB030CF2
:1002C00039D3002919BFB1FA81F701FA07F6B0FA5C
:1002D00080F700FA07F6C7F120071EBF20FA07FCD7
:1002E00046EA0C062037B6FBF4FCA7EB0507103FE7
:1002F00007F01F0BCBF120062CFA06F60CFA0BFBCD
:1003000044BFB3460026202FA4BF5E464FF0000B2B
:100310005BEA060C08BF4FF0010B19EB0B0948EB29
:100320000608ABFB027C06FB02CC0BFB03CCC01B1C
:1003300071EB0C01C1E70B46024641464846BDE859
:10034000F08B13B5084318BF4FF0FF300146AFF3F1
:100350000080BDE81C4070474FF0000200B5134616
:1003600094469646203922BFA0E80C50A0E80C50D5
:10037000B1F12001BFF4F7AF090728BFA0E80C5086
:1003800048BF0CC05DF804EB890028BF40F8042B7F
:1003900008BF704748BF20F8022B11F0804F18BFEC
:1003A00000F8012B7047704770477047754600F0A2
:1003B0002BF8AE4605006946534620F007008546F7
:1003C00018B020B5FFF73EFFBDE820404FF0000613
:1003D0004FF000074FF000084FF0000BAC46ACE8C0
:1003E000C009ACE8C009ACE8C009ACE8C00921F01C
:1003F00007018D46704710B50446AFF300802046D4
:10040000BDE81040FFF709BF004870471800002002
:1004100001491820ABBEFEE726000200704700002D
:1004200082B0019042F20030C4F2010000900099C5
:10043000486820F440304860019842680099486854
:100440001043486001980168486820F48070486053
:10045000019801680269486840EA022048600198F2
:100460000168486820F0407048600198016882681F
:1004700048681043486001980168886820F400606B
:10048000886001980168C268886810438860019894
:10049000806A0121C0F60071884219D0FFE70198F7
:1004A0000168886820F07060886001980168826A3D
:1004B00088681043886001980168886820F040507F
:1004C000886001980168C26A8868104388600CE0FF
:1004D00001980168886820F0706088600198016860
:1004E000886820F040508860FFE7019801688868BC
:1004F00020F0020088600198027E0168886840EA66
:1005000042008860019890F82000C8B1FFE7019888
:100510000168486840F400604860019801684868D4
:1005200020F46040486001980168426A4EF2000081
:10053000CFF6FF7000EB423248681043486006E097
:1005400001980168486820F400604860FFE701985E
:100550000168C86A20F47000C86201980168C26925
:100560000020CFF6F07000EB0252C86A1043C86258
:1005700001980168886820F400708860019890F8FC
:1005800030200168886840EA42208860019801684C
:10059000886820F4806088600198016842698868F2
:1005A00040EA8220886002B070470000FFE7FEE763
:1005B00080B540F21810C2F2000000F0C3FA80BD0E
:1005C00080B540F21810C2F2000000F0BBFA80BD06
:1005D00080B540F24010C2F2000000F0B3FA80BDD6
:1005E00080B540F24010C2F2000000F0ABFA80BDCE
:1005F00080B540F26810C2F2000000F029FF80BD13
:1006000080B540F2E820C2F2000000F021FF80BD7A
:1006100080B540F22820C2F2000000F019FF80BD32
:1006200080B540F2C810C2F2000000F011FF80BD9A
:1006300080B540F24830C2F2000000F009FF80BDF2
:1006400080B540F28820C2F2000000F001FF80BDBA
:1006500082B001900198007810384AF6AB21CAF6B2
:10066000AA21A0FB011000090090009945F6165040
:10067000C0F60000405C0199C8650098042807D3C3
:10068000FFE701990868042262F30900886506E023
:100690000199086840F2FF3290438865FFE70198AE
:1006A000806D02B07047000086B0059000208DF884
:1006B00013000598806A03900598806910BBFFE7D6
:1006C0000398029003281BD80299DFE801F0020D7D
:1006D0000218059890F82F00C00720B1FFE701200D
:1006E0008DF81300FFE70CE00598C06AB0F1C07FF9
:1006F00004D1FFE701208DF81300FFE701E000E0DF
:10070000FFE745E005988069B0F5005F25D1FFE778
:100710000398019003281ED80199DFE801F0020632
:10072000021101208DF8130016E0059890F82F00B3
:10073000C00720B1FFE701208DF81300FFE70BE0B1
:100740000598C06AB0F1C07F04D1FFE701208DF8A1
:100750001300FFE700E0FFE719E00398009003288B
:1007600004D3FFE70098032804D00EE001208DF8A1
:1007700013000BE0059890F82F00C00720B1FFE7A9
:1007800001208DF81300FFE700E0FFE7FFE7FFE738
:100790009DF8130006B070477047000080B5012037
:1007A00001F0C6F880BD000081B0EFF3108072B692
:1007B0000090FFE7FEE7000085B003900291002063
:1007C0000190FFE7039890F83C00012804D1FFE76F
:1007D00002208DF81300F7E00399012081F83C0016
:1007E000FFE7FFE7029800680A281CD3FFE702989A
:1007F000008800EB4000A0F11E01072000FA01F282
:1008000003980168C8689043C8600299886809889D
:1008100001EB41011E3900FA01F203980168C86832
:100820001043C86018E00298008800EB40010720E0
:1008300000FA01F20398016808699043086102997F
:100840008868098801EB410100FA01F20398016808
:10085000086910430861FFE70298406806281BD822
:10086000FFE70298406800EB8000411F1F2000FA5C
:1008700001F203980168486B904348630299088825
:10088000496801EB8101053900FA01F2039801681A
:10089000486B104348633DE0029840680C281CD820
:1008A000FFE70298406800EB8000A0F123011F20C1
:1008B00000FA01F203980168086B904308630299FB
:1008C0000888496801EB8101233900FA01F2039895
:1008D0000168086B104308631BE00298406800EB56
:1008E0008000A0F141011F2000FA01F20398016885
:1008F000C86A9043C86202990888496801EB81017F
:10090000413900FA01F203980168C86A1043C862CD
:10091000FFE7FFE742F20030C4F2010000900398C5
:10092000006842F20001C4F2010188420BD1FFE7E6
:1009300002980068122806D1FFE70099486840F441
:1009400080004860FFE70398006842F20001C4F2AB
:10095000010188422ED1FFE702980068102805D0D7
:10096000FFE702980068112824D1FFE70099486842
:1009700040F40000486002980068102819D1FFE791
:1009800040F20000C2F2000000684DF68361C4F23C
:100990001B31A0FB0110800C00EB80004000019097
:1009A000FFE7019820B1FFE7019801380190F8E7CF
:1009B000FFE7FFE7FFE70399002081F83C00FFE72E
:1009C00000208DF81300FFE79DF8130005B0704775
:1009D00080B584B0029000208DF80700029820B9FD
:1009E000FFE701208DF80F0042E00298806A0121A4
:1009F000C0F60071884201D0FFE7FFE70298006C63
:100A000050B9FFE7029800F037F8029900204864D7
:100A1000029981F83C00FFE70298006CC0060028AC
:100A200017D4FFE70298006C40F0020020F48850D1
:100A3000029908640298FFF7F3FC029900204864C9
:100A40000298006C40F0010020F002000299086456
:100A500003E001208DF80700FFE7FFE7029900207F
:100A600081F83C00FFE79DF807008DF80F00FFE7D5
:100A70009DF80F0004B080BD80B58AB009900020B9
:100A8000089007900690059004900998006842F23B
:100A90000001C4F20101884212D1FFE7FFE7002004
:100AA000039043F64400C4F20200016841F48071EF
:100AB0000160006800F4807003900398FFE73AE05B
:100AC0000998006842F20021C4F20101884231D144
:100AD000FFE7FFE70020029043F64400C4F2020063
:100AE000016841F480610160006800F48060029058
:100AF0000298FFE7FFE70020019043F63000C4F2C0
:100B00000200016841F020010160006800F020004F
:100B100001900198FFE74FF4806004900320059056
:100B20000020069041F20040C4F2020004A900F047
:100B30001BFFFFE7FFE70AB080BD000081B0009017
:100B400001B0704780B58AB00990002008900998DC
:100B50000068406907900998006840680690099805
:100B600000688068059009980068C068049009983A
:100B700000680069039009980068806902909DF8F8
:100B80001C00C007002800F09480FFE79DF81400C7
:100B9000C00758B3FFE709980168012088609DF8F5
:100BA00014008007002804D5FFE7099800F0A0FB97
:100BB0001BE09DF814004007002805D5FFE70898C2
:100BC00040F4006008900FE09DF814000007002832
:100BD00005D5FFE7089840F48050089003E0099895
:100BE00000F082FBFFE7FFE7FFE7FFE79DF8150056
:100BF000C00760B3FFE7099801684FF48070886010
:100C00009DF815008007002804D5FFE7099800F03B
:100C100077FB1BE09DF815004007002805D5FFE78E
:100C2000089840F4005008900FE09DF81500000768
:100C3000002805D5FFE7089840F48040089003E0BD
:100C4000099800F059FBFFE7FFE7FFE7FFE79DF892
:100C50001600C00760B3FFE7099801684FF48030C1
:100C600088609DF816008007002804D5FFE70998E2
:100C700000F04EFB1BE09DF816004007002805D54C
:100C8000FFE7089840F4004008900FE09DF8160038
:100C90000007002805D5FFE7089840F48030089049
:100CA00003E0099800F030FBFFE7FFE7FFE7FFE70D
:100CB000FFE79DF81C000007002810D5FFE79DF80E
:100CC0001000C006002809D5FFE7089840F400701E
:100CD0000890099801681020C860FFE7FFE79DF8B9
:100CE0001C00400700280FD5FFE79DF81000000703
:100CF000002808D5FFE7099801680820C86009980E
:100D000000F0DEFAFFE7FFE79DF81C0080070028EF
:100D10000BD5FFE709980068C068800720B1FFE79E
:100D2000099800F0D1FAFFE7FFE79DF81C004006A4
:100D3000002810D5FFE79DF80C00C006002809D553
:100D4000FFE7089840F48060089009980168102037
:100D50000861FFE7FFE79DF81C00800600280FD51B
:100D6000FFE79DF80C000007002808D5FFE7099869
:100D7000016808200861099800F0AAFAFFE7FFE778
:100D80009DF81C00C00600280BD5FFE709980068F5
:100D90000069800720B1FFE7099800F09DFAFFE79E
:100DA000FFE79DF81E00800700280FD5FFE79DF89C
:100DB0001800C006002808D5FFE709980168102030
:100DC0004860099800F08CFAFFE7FFE79DF81E00E5
:100DD000C00778B1FFE79DF818000007002808D584
:100DE000FFE70998016808204860099800F094FA24
:100DF000FFE7FFE79DF81D000006002840F18D8009
:100E0000FFE79DF818004007002840F18180FFE7C8
:100E10009DF81D00C00750B1FFE79DF80800C0070E
:100E200028B1FFE7089840F001000890FFE79DF81F
:100E30001D00800700280BD5FFE79DF808008007FC
:100E4000002805D5FFE7089840F002000890FFE76A
:100E50009DF81D00400700280BD5FFE79DF808000E
:100E60004007002805D5FFE7089840F004000890E7
:100E7000FFE79DF81D000007002848D5FFE79DF813
:100E8000080010F0700F42D0FFE7029800F07000E9
:100E900001460191102814D0FFE70198202815D0B1
:100EA000FFE70198302816D0FFE70198402817D0B7
:100EB000FFE70198502818D0FFE70198602819D063
:100EC0001DE0089840F00800089019E0089840F0EC
:100ED0001000089014E0089840F0200008900FE0FF
:100EE000089840F0400008900AE0089840F0800020
:100EF000089005E0089840F48070089000E0FFE753
:100F000009980168886920F070008861FFE7FFE7B1
:100F10000998016804204860FFE7089848B1FFE796
:100F2000089A0999486A104348620998FFF706FE33
:100F3000FFE70AB080BD000080B584B0029002983F
:100F400020B9FFE701208DF80F00E0E0029890F84B
:100F5000200020B9FFE7029800F0DEF8FFE70298D2
:100F60000168086840F00100086000F005FF01908A
:100F7000FFE7029800684068C007A8B9FFE700F0E3
:100F8000FBFE0199401A0B280DD3FFE70299486A2E
:100F900040F4003048620299052081F820000120C9
:100FA0008DF80F00B3E0E4E702980168086820F0CC
:100FB0000200086000F0E0FE0190FFE70298006880
:100FC00040688007002815D5FFE700F0D5FE01999D
:100FD000401A0B280DD3FFE70299486A40F400300D
:100FE00048620299052081F8200001208DF80F0049
:100FF0008DE0E3E70298007E012807D1FFE7029821
:101000000168086840F08000086006E00298016806
:10101000086820F080000860FFE70298407E012801
:1010200007D1FFE702980168086840F040000860B7
:1010300006E002980168086820F040000860FFE7B9
:101040000298807E012807D1FFE7029801680868AE
:1010500040F02000086006E002980168086820F06F
:1010600020000860FFE70298C07E012807D1FFE753
:1010700002980168086820F01000086006E00298F5
:101080000168086840F010000860FFE70298007FE0
:10109000012807D1FFE702980168086840F00800BE
:1010A000086006E002980168086820F008000860FF
:1010B000FFE70298407F012807D1FFE70298016807
:1010C000086840F00400086006E0029801680868BB
:1010D00020F004000860FFE7029B19685A689868CE
:1010E000D3F80CC040EA0C00D3F810C040EA0C0062
:1010F0005B691843013A1043C861029900204862B5
:10110000029A012182F820108DF80F00FFE79DF868
:101110000F0004B080BD000080B592B01190002097
:1011200010900F900E900D900C901198006846F260
:101130000041C4F20001884252D1FFE740F278003A
:10114000C2F200000168013101600068012812D17B
:10115000FFE7FFE700200B9043F64000C4F20200D7
:10116000016841F000710160006800F000700B90B0
:101170000B98FFE7FFE7FFE700200A9043F63000F7
:10118000C4F20200016841F008010160006800F04B
:1011900008000A900A98FFE703200C9002210D91A5
:1011A000002105910E910F900920109040F600400B
:1011B000C4F202000CA900F0D7FB059A1420049099
:1011C000114600F0B7FE049800F0AAFE059A15201B
:1011D0000690114600F0AEFE069800F0A1FE6DE00C
:1011E0001198006846F60001C4F20001884264D1FB
:1011F000FFE7FFE70020099043F64000C4F2020039
:10120000016841F080610160006800F08060099031
:101210000998FFE740F27800C2F20000016801314E
:1012200001600068012812D1FFE7FFE70020089065
:1012300043F64000C4F20200016841F00071016011
:10124000006800F0007008900898FFE7FFE7FFE7EC
:101250000020079043F63000C4F20200016841F01C
:1012600002010160006800F0020007900798FFE7A4
:1012700060200C9002200D90002002900E90032020
:101280000F900920109040F20040C4F202000CA917
:1012900000F06AFB029A40200190114600F04AFEDD
:1012A000019800F03DFE029A41200390114600F0A3
:1012B00041FE039800F034FEFFE7FFE712B080BD67
:1012C00081B0009001B0704781B0009001B07047CC
:1012D00081B0009001B0704781B0009001B07047BC
:1012E00081B0009001B0704781B0009001B07047AC
:1012F00081B0009001B0704781B0009001B070479C
:1013000081B0009001B0704781B0009001B070478B
:1013100081B0009001B0704781B0009001B070477B
:1013200080B584B002900298806D019000F024FD99
:101330000090029890F8350002280DD0FFE702993E
:1013400080204865FFE70299002081F83400FFE71C
:1013500001208DF80F0055E002980168086820F020
:101360001600086002980168486920F08000486112
:101370000298006C20B9FFE70298806C38B1FFE753
:1013800002980168086820F008000860FFE70298EA
:101390000168086820F001000860FFE70298006813
:1013A0000068C007C8B1FFE700F0E6FC0099401AEA
:1013B000062811D3FFE702992020486502990320EF
:1013C00081F83500FFE70299002081F83400FFE73B
:1013D00003208DF80F0015E0E0E70298C16D3F2073
:1013E0008840019988600299012081F83500FFE763
:1013F0000299002081F83400FFE7FFE700208DF814
:101400000F00FFE79DF80F0004B080BD82B0009090
:10141000009890F83500022807D0FFE70099802057
:10142000486501208DF807000EE00099052081F83D
:10143000350000980168086820F001000860FFE7A7
:1014400000208DF80700FFE79DF8070002B0704705
:1014500080B586B005900020039040F20000C2F2F3
:101460000000006848F2B511C1F64E31A0FB011032
:10147000800A02900598806D0190019800680490A0
:1014800004980599C96DC840000700281AD5FFE7E0
:101490000598006800684007002812D5FFE7059806
:1014A0000168086820F0040008600598C16D0820F4
:1014B0008840019988600599486D40F001004865B1
:1014C000FFE7FFE704980599C96DC840C007A0B1C0
:1014D000FFE7059800684069000600280CD5FFE783
:1014E0000598C16D01208840019988600599486D73
:1014F00040F002004865FFE7FFE704980599C96DD1
:10150000C8404007002814D5FFE705980068006828
:10151000800700280CD5FFE70598C16D042088409E
:10152000019988600599486D40F004004865FFE71F
:10153000FFE704980599C96DC840C006002847D543
:10154000FFE7059800680068000700283FD5FFE71F
:101550000598C16D10208840019988600598006841
:101560000068400300281AD5FFE705980068006866
:101570000003002809D4FFE70598006C20B1FFE7BD
:101580000598016C8847FFE708E00598806C20B15A
:10159000FFE70598816C8847FFE7FFE716E00598AD
:1015A00000680068C005002807D4FFE705980168B7
:1015B000086820F008000860FFE70598006C20B17B
:1015C000FFE70598016C8847FFE7FFE7FFE7FFE7C4
:1015D00004980599C96DC8408006002840F18D80A7
:1015E000FFE7059800680068C006002840F1848085
:1015F000FFE70598C16D2020884001998860059813
:1016000090F83500052834D1FFE70598016808688F
:1016100020F01600086005980168486920F08000F5
:1016200048610598006C20B9FFE70598806C38B1D7
:10163000FFE705980168086820F008000860FFE7E8
:101640000598C16D3F208840019988600599012067
:1016500081F83500FFE70599002081F83400FFE7A5
:101660000598006D20B1FFE70598016D8847FFE7F9
:101670007BE0059800680068400300281AD5FFE762
:101680000598006800680003002809D4FFE7059862
:10169000406C20B1FFE70598416C8847FFE708E000
:1016A0000598C06B20B1FFE70598C16B8847FFE73D
:1016B000FFE720E0059800680068C005002811D405
:1016C000FFE705980168086820F010000860059998
:1016D000012081F83500FFE70599002081F83400EA
:1016E000FFE7FFE70598C06B20B1FFE70598C16BE6
:1016F0008847FFE7FFE7FFE7FFE70598406DA0B3E6
:10170000FFE70598406DC00730B3FFE70599052056
:1017100081F8350005980168086820F0010008602C
:10172000FFE70398013003900299884201D9FFE74F
:1017300007E0FFE7059800680068C0070028F0D1BF
:10174000FFE70599012081F83500FFE705990020A2
:1017500081F83400FFE7FFE70598C06C20B1FFE790
:101760000598C16C8847FFE7FFE706B080BD000021
:1017700080B586B004900020039000F0FDFA02903E
:10178000049820B9FFE701208DF81700A3E0049822
:10179000406A08B1FFE7FFE70499022081F83500AD
:1017A000FFE70499002081F83400FFE704980168FE
:1017B000086820F001000860FFE7049800680068EE
:1017C000C00790B1FFE700F0D7FA0299401A062847
:1017D0000AD3FFE70499202048650499032081F883
:1017E00035008DF8170076E0E7E704980068006898
:1017F0000390039848F23F01CFF210010840039094
:10180000049900914868D1F808C0CB680A6940EA99
:101810000C00184310434A6910438A691043CA698F
:101820001043096A01430398084303900498406AEF
:10183000042808D1FFE70499C86A096B014303989B
:1018400008430390FFE70398049909680860049827
:10185000006840690390039820F007000390049803
:10186000416A0398084303900498406A04281AD1F7
:10187000FFE70498816A0398084303900498C06ABC
:1018800080B1FFE70498FEF70FFF50B1FFE704991E
:10189000402048650499012081F835008DF8170033
:1018A00019E0FFE7FFE70398049909684861049885
:1018B000FEF7CEFE01900498C16D3F20884001994B
:1018C0008860049900204865049A012182F8351047
:1018D0008DF81700FFE79DF8170006B080BD0000E7
:1018E00080B584B0039000F047FA0290039801900D
:1018F0000198013048B1FFE740F20E00C2F200004B
:101900000178019808440190FFE7FFE700F034FAFE
:101910000299401A0199884201D2FFE7F6E704B024
:1019200080BD000081B0ADF8020001B0704700003A
:1019300080B582B0ADF8060043F61440C4F2010051
:101940000068BDF8061008420CD0FFE7BDF806009D
:1019500043F61441C4F201010860BDF80600FFF728
:10196000E1FFFFE702B080BD8EB00D900C9100202A
:101970000A90099008900B90FFE70B980F2800F24F
:10198000CC81FFE70B99012088400A900C980068F1
:101990000A990840099009980A99884240F0B8814C
:1019A000FFE70C98406800F00300012807D0FFE72C
:1019B0000C98406800F0030002282FD1FFE70D9833
:1019C000806808900B984100032000FA01F1089804
:1019D000884308900C98C0680B99490000FA01F1FF
:1019E00008980843089008980D9988600D984068F9
:1019F00008900B99012000FA01F10898884308909B
:101A00000C984068C0F300100B9900FA01F1089897
:101A10000843089008980D994860FFE70C984068C3
:101A200000F00300032818D0FFE70D98C068089065
:101A30000B984100032000FA01F1089888430890B0
:101A40000C9880680B99490000FA01F10898084346
:101A5000089008980D99C860FFE70C98406800F05E
:101A60000300022826D1FFE70D980B996FF00302BF
:101A700002EA51010844006A08900B9800F0070040
:101A800081000F2000FA01F10898884308900C9813
:101A900000690B9901F00701890000FA01F108982B
:101AA0000843089008980D990B9B02EA53021144D1
:101AB0000862FFE70D98006808900B98410003202A
:101AC00000FA01F10898884308900C98406800F0EB
:101AD00003000B99490000FA01F1089808430890A7
:101AE00008980D9908600C9880798007002800F00C
:101AF0000E81FFE7FFE70020079043F64400C4F2A1
:101B00000200016841F480410160006800F48040F7
:101B100007900798FFE70B9820F0030043F60801B1
:101B2000C4F20101405808900B9800F003008100B6
:101B30000F2000FA01F10898884308900D980021C1
:101B4000C4F20201884203D1FFE7002006905EE064
:101B50000D9840F20041C4F20201884203D1FFE730
:101B60000120059050E00D9840F60001C4F20201FA
:101B7000884203D1FFE70220049042E00D9840F62E
:101B80000041C4F20201884203D1FFE70320039021
:101B900034E00D9841F20001C4F20201884203D101
:101BA000FFE70420029026E00D9841F20041C4F2C4
:101BB0000201884203D1FFE70520019018E00D984B
:101BC00041F60001C4F20201884203D1FFE706207A
:101BD00000900AE00D9941F60042C4F2020208208A
:101BE000914208BF07200090FFE700980190FFE7AF
:101BF00001980290FFE702980390FFE70398049092
:101C0000FFE704980590FFE705980690FFE7069820
:101C1000C0B20B9901F00301890000FA01F10898A4
:101C20000843089008980B9921F0030143F6080235
:101C3000C4F20102885043F60840C4F20100006873
:101C4000089009990898884308900C988079C006F4
:101C5000002805D5FFE70999089808430890FFE791
:101C6000089843F60841C4F20101086043F60C40AD
:101C7000C4F2010000680890099908988843089008
:101C80000C9880798006002805D5FFE70999089807
:101C900008430890FFE7089843F60C41C4F201019D
:101CA000086043F60440C4F20100006808900999F6
:101CB0000898884308900C9880798007002805D5FB
:101CC000FFE70999089808430890FFE7089843F64A
:101CD0000441C4F20101086043F60040C4F201006F
:101CE0000068089009990898884308900C988079B2
:101CF000C00728B1FFE70999089808430890FFE753
:101D0000089843F60041C4F201010860FFE7FFE7CD
:101D1000FFE70B9801300B902FE60EB070470000E4
:101D200083B00290ADF80610029840690090009AC6
:101D3000BDF8060002EA0001904340EA0140029922
:101D4000886103B07047000082B00190ADF80210C6
:101D50008DF801209DF8010028B1FFE7BDF80200D1
:101D60000199886105E0BDF80200000401998861CD
:101D7000FFE702B07047000040F2D060C2F20000FE
:101D80000068704780B584B00290029820B9FFE7E0
:101D900001208DF80F0037E0029801684CF6CC4026
:101DA00008600298016845F2555008600298016881
:101DB000406848600298016880688860FFF7DCFF2F
:101DC0000190FFE702980068C068800798B1FFE7BC
:101DD000FFF7D2FF0199401A32280BD3FFE7029890
:101DE0000068C068800720B1FFE703208DF80F006E
:101DF0000AE0FFE7E6E7029801684AF6AA200860D1
:101E000000208DF80F00FFE79DF80F0004B080BDA3
:101E100040F20E00C2F20000027840F2D061C2F23D
:101E200000010868104408607047000080B543F660
:101E30000041C4F20201086840F4007008600868BC
:101E400040F480600860086840F4807008600320F7
:101E500000F08AF80F2000F005F800F03BF80020B1
:101E600080BD000080B582B0009040F20000C2F258
:101E70000000006840F20E01C2F200010A784FF43F
:101E80007A71B1FBF2F1B0FBF1F000F0EBFE20B1A2
:101E9000FFE701208DF8070018E000980F280DD803
:101EA000FFE700994FF0FF30002200F043F8009860
:101EB00040F21001C2F20001086003E001208DF839
:101EC000070003E000208DF80700FFE79DF80700FA
:101ED00002B080BD82B0FFE70020019043F64400CD
:101EE000C4F20200016841F480410160006800F41E
:101EF000804001900198FFE7FFE70020009043F643
:101F00004000C4F20200016841F0805101600068A5
:101F100000F0805000900098FFE702B0704700008A
:101F200080B582B08DF807009DF9070003F030FE00
:101F300002B080BD80B586B08DF817000491039281
:101F40000020029003F03CFE02909DF917000190E2
:101F500002980499039A02F069FF0146019803F080
:101F600037FE06B080BD000080B582B001900198B8
:101F700003F050FE02B080BD80B584B002900191A4
:101F8000029820B9FFE701208DF80F0021E10198A8
:101F900043F60041C4F20201096801F007018842DA
:101FA00012D9FFE7019943F60040C4F20200017024
:101FB000006800F007000199884204D0FFE7012083
:101FC0008DF80F0005E1FFE70298007880070028F0
:101FD0002AD5FFE7029800784007002809D5FFE7D7
:101FE00043F60801C4F20201086840F4E0500860BA
:101FF000FFE7029800780007002809D5FFE743F6BD
:102000000801C4F20201086840F460400860FFE77C
:1020100043F60801C4F20201086820F0F000029AB9
:10202000926810430860FFE702980078C007002814
:102030006ED0FFE702984068012811D1FFE743F610
:102040000000C4F20200006800F400310020B0EB90
:10205000514F04D1FFE701208DF80F00B9E02CE0CB
:1020600002984068022805D0FFE7029840680328DC
:1020700011D1FFE743F60000C4F20200006800F04F
:1020800000710020B0EB516F04D1FFE701208DF803
:102090000F009EE010E043F60000C4F2020000686A
:1020A00000F002010020B0EB510F04D1FFE7012046
:1020B0008DF80F008DE0FFE7FFE743F60801C4F25B
:1020C0000201086820F00300029A52681043086079
:1020D000FFF752FE0090FFE743F60800C4F202004B
:1020E000006800F00C0002994968B0EB810F0ED037
:1020F000FFE7FFF741FE0099401A41F2893188421B
:1021000004D3FFE703208DF80F0062E0E4E7FFE768
:10211000019843F60041C4F20201096801F0070189
:10212000884212D2FFE7019943F60040C4F2020050
:102130000170006800F007000199884204D0FFE7B1
:1021400001208DF80F0044E0FFE702980078400777
:1021500000280CD5FFE743F60801C4F20201086825
:1021600020F4E050029AD26810430860FFE702981A
:102170000078000700280DD5FFE743F60801C4F2F8
:102180000201086820F46040029A126940EAC20025
:102190000860FFE700F04CF843F60801C4F20201C2
:1021A0000968C9B20A0945F6FE41C0F60001895C1A
:1021B000C84040F20001C2F20001086040F2100085
:1021C000C2F200000068FFF74DFE00208DF80F00FE
:1021D000FFE79DF80F0004B080BD000040F2000052
:1021E000C2F200000068704780B5FFF7F7FF43F6C2
:1021F0000801C4F202010968C1F3822245F60E51BA
:10220000C0F60001895CC84080BD000080B5FFF7C2
:10221000E5FF43F60801C4F20201096889B24A0BDE
:1022200045F60E51C0F60001895CC84080BD000033
:1022300080B586B00020059004900390029043F68C
:102240000800C4F20200006800F00C000146019191
:1022500040B1FFE7019804280AD0FFE70198082859
:102260000CD04FE042F20040C0F2F40002904FE088
:1022700041F60030C0F2B700029049E043F6040096
:10228000C4F20200016801F03F01059100684002BC
:10229000002813D5FFE743F60400C4F202000068EB
:1022A000C0F3881041F60031C0F2B701A0FB010174
:1022B000059A0023FDF7D8FF049012E043F60400CE
:1022C000C4F202000068C0F3881042F20041C0F27C
:1022D000F401A0FB0101059A0023FDF7C5FF04905E
:1022E000FFE743F60400C4F20200006800F4403146
:1022F000022000EBD130039004980399B0FBF1F079
:10230000029005E042F20040C0F2F4000290FFE7C4
:10231000029806B080BD000080B586B00490049895
:1023200020B9FFE701208DF8170050E304980078EA
:10233000C007002800F0A580FFE743F60800C4F2BC
:102340000200006800F00C00042813D0FFE743F6F9
:102350000800C4F20200006800F00C0008281ED13A
:10236000FFE743F60400C4F20200006840020028C0
:1023700015D5FFE743F60000C4F20200006800F440
:1023800000310020B0EB514F08D0FFE704984068BF
:1023900020B9FFE701208DF8170018E370E0FFE790
:1023A00004984068B0F5803F09D1FFE743F600018B
:1023B000C4F20201086840F48030086020E004980C
:1023C0004068B0F5A02F0DD1FFE743F60001C4F23D
:1023D0000201086840F480200860086840F48030FA
:1023E00008600CE043F60001C4F20201086820F422
:1023F00080300860086820F480200860FFE7FFE76D
:10240000FFE704984068E8B1FFE7FFF7B5FC0390E9
:10241000FFE743F60000C4F20200006800F4003158
:102420000020B0EB514F0CD1FFE7FFF7A5FC03995B
:10243000401A652804D3FFE703208DF81700C6E291
:10244000E7E71CE0FFF798FC0390FFE743F6000086
:10245000C4F20200006800F400310020B0EB514FDC
:102460000CD0FFE7FFF788FC0399401A652804D3D6
:10247000FFE703208DF81700A9E2E7E7FFE7FFE792
:10248000FFE7049800788007002840F19680FFE776
:1024900043F60800C4F20200006810F00C0F13D0DD
:1024A000FFE743F60800C4F20200006800F00C00E9
:1024B00008282CD1FFE743F60400C4F202000068AC
:1024C0004002002823D4FFE743F60000C4F20200D4
:1024D000006800F002010020B0EB510F09D0FFE7C7
:1024E0000498C068012804D0FFE701208DF8170088
:1024F0006DE243F60001C4F20201086820F0F80022
:10250000049A126940EAC2000860FFE754E00498A8
:10251000C06870B3FFE70021C4F2472101200860C2
:10252000FFF72AFC0390FFE743F60000C4F2020025
:10253000006800F002010020B0EB510F0CD1FFE762
:10254000FFF71AFC0399401A032804D3FFE703207E
:102550008DF817003BE2E7E743F60001C4F2020101
:10256000086820F0F800049A126940EAC200086086
:1025700021E00021C4F2472100200860FFF7FCFBA6
:102580000390FFE743F60000C4F20200006800F089
:1025900002010020B0EB510F0CD0FFE7FFF7ECFB7E
:1025A0000399401A032804D3FFE703208DF817008E
:1025B0000DE2E7E7FFE7FFE7FFE704980078000791
:1025C00000284BD5FFE70498406918B3FFE740F6B1
:1025D0008061C4F2472101200860FFF7CDFB039022
:1025E000FFE743F67400C4F20200006800F0020145
:1025F0000020B0EB510F0CD1FFE7FFF7BDFB0399B3
:10260000401A032804D3FFE703208DF81700DEE10A
:10261000E7E722E040F68061C4F24721002008602D
:10262000FFF7AAFB0390FFE743F67400C4F2020031
:10263000006800F002010020B0EB510F0CD0FFE762
:10264000FFF79AFB0399401A032804D3FFE70320FE
:102650008DF81700BBE1E7E7FFE7FFE70498007894
:102660004007002840F1CE80FFE700208DF80700EA
:1026700043F64000C4F202000068C000002815D4F0
:10268000FFE7FFE70020009043F64000C4F202009D
:10269000016841F080510160006800F080500090B6
:1026A0000098FFE701208DF80700FFE747F20000E0
:1026B000C4F200000068C005002822D4FFE747F2FA
:1026C0000001C4F20001086840F480700860FFF760
:1026D00053FB0390FFE747F20000C4F200000068DC
:1026E000C00500280CD4FFE7FFF746FB0399401A0A
:1026F000032804D3FFE703208DF8170067E1EAE71A
:10270000FFE7FFE704988068012809D1FFE743F657
:102710007001C4F20201086840F0010008601FE087
:102720000498806805280DD1FFE743F67001C4F2D4
:102730000201086840F004000860086840F00100E9
:1027400008600CE043F67001C4F20201086820F052
:1027500001000860086820F004000860FFE7FFE758
:10276000FFE704988068F8B1FFE7FFF705FB0390E7
:10277000FFE743F67000C4F20200006800F00201B7
:102780000020B0EB510F0ED1FFE7FFF7F5FA0399E8
:10279000401A41F28931884204D3FFE703208DF8C3
:1027A000170014E1E5E71EE0FFF7E6FA0390FFE704
:1027B00043F67000C4F20200006800F0020100203D
:1027C000B0EB510F0ED0FFE7FFF7D6FA0399401A8E
:1027D00041F28931884204D3FFE703208DF81700C6
:1027E000F5E0E5E7FFE79DF80700012809D1FFE7DD
:1027F00043F64001C4F20201086820F080500860EE
:10280000FFE7FFE704988069002800F0DC80FFE71D
:1028100043F60800C4F20200006800F00C0008282B
:1028200000F08580FFE70498806902285CD1FFE70B
:102830006021C4F2472100200860FFF79DFA039051
:10284000FFE743F60000C4F20200006800F00071E8
:102850000020B0EB516F0CD0FFE7FFF78DFA039922
:10286000401A032804D3FFE703208DF81700AEE0D9
:10287000E7E70499C869D1F820C04B6A8A6A40EA40
:102880000C0040EA8310D2034FF6FF739A43A2F57F
:1028900080321043C96A40EA016043F60401C4F281
:1028A000020108606021C4F2472101200860FFF79F
:1028B00063FA0390FFE743F60000C4F202000068E9
:1028C00000F000710020B0EB516F0CD1FFE7FFF773
:1028D00053FA0399401A032804D3FFE703208DF825
:1028E000170074E0E7E721E06021C4F247210020EF
:1028F0000860FFF741FA0390FFE743F60000C4F2D7
:102900000200006800F000710020B0EB516F0CD0A5
:10291000FFE7FFF731FA0399401A032804D3FFE7D2
:1029200003208DF8170052E0E7E7FFE74AE004983C
:102930008069012804D1FFE701208DF8170046E0E7
:1029400043F60400C4F20200006802900498806913
:10295000012831D0FFE7029800F480000499C9698A
:10296000884229D1FFE7029800F03F000499096AE4
:10297000884221D1FFE7029847F6C07108400499C8
:10298000496AB0EB811F17D1FFE7029800F440308D
:102990000499896AC9034FF6FF729143A1F580310A
:1029A000884209D1FFE7029800F070600499C96A73
:1029B000B0EB016F04D0FFE701208DF8170006E0AF
:1029C000FFE7FFE7FFE700208DF81700FFE79DF81E
:1029D000170006B080BD000080B584B00290029858
:1029E00020B9FFE701208DF80F0071E00298406ADE
:1029F00060B9FFE702984068B0F5827F01D1FFE738
:102A000003E002990020C861FFE705E00299002079
:102A1000086102994861FFE70299002088620298E4
:102A200090F8510040B9FFE70299002081F850006A
:102A3000029800F051F8FFE70299022081F8510056
:102A400002980168086820F040000860029A01922C
:102A500011685068D2F808C0D36800F482700CF492
:102A6000044C604403F400631844136903F0020348
:102A70001844536903F001031844936903F4007385
:102A80001844D36903F038031844136A03F0800331
:102A90001843926A02F4005210430860029A508B65
:102AA00000F004001168526A02F0100210444860FD
:102AB00002980168C86920F40060C861029900208A
:102AC0004865029A012182F851108DF80F00FFE746
:102AD0009DF80F0004B080BD80B590B00F9000202D
:102AE0000E900D900C900B900A900F98006843F296
:102AF0000001C4F20101884240F0B280FFE7FFE725
:102B00000020099043F64400C4F20200016841F439
:102B100080510160006800F4805009900998FFE737
:102B2000FFE70020089043F63000C4F2020001687D
:102B300041F002010160006800F00200089008986E
:102B4000FFE7FFE70020079043F63000C4F20200E1
:102B5000016841F001010160006800F00100079088
:102B60000798FFE718200A90022001900B900020A0
:102B700005900C90032002900D90052003900E907C
:102B800040F20040C4F202000AA90491FEF7ECFEF4
:102B9000DDF804C0029A03980499059B4FF0800E5B
:102BA000CDF828E0CDF82CC00C930D920E900020AB
:102BB000C4F20200FEF7D8FE059940F26810C2F296
:102BC0000000069046F21042C4F2020202604FF08A
:102BD000C06242608160C1604FF480620261416105
:102BE0008161C16101624162FEF7C2FD18B1FFE778
:102BF000FDF7DAFDFFE7FFE70F9840F26811C2F238
:102C00000001C1640F988863FFE740F2C810C2F268
:102C10000000009046F25841C4F2020101604FF0FA
:102C2000C0614160402181600021C1604FF4806239
:102C3000026141618161C16101624162FEF798FDFB
:102C400018B1FFE7FDF7B0FDFFE7FFE70F9840F28F
:102C5000C811C2F2000181640F988863FFE7FFE7A3
:102C600010B080BD80B582B00190019802F018F9D3
:102C700002B080BD81B0009001B0704781B000907B
:102C800001B0704784B00290019100200090FFE7EE
:102C9000029890F83C00012804D1FFE702208DF84B
:102CA0000F0044E00299012081F83C00FFE7FFE7B4
:102CB000009820F0FF000199C9680843009000982F
:102CC00020F440700199896808430090009820F42E
:102CD00080600199496808430090009820F40060E2
:102CE0000199096808430090009820F480500199E8
:102CF000096908430090009820F40050019949693F
:102D000008430090009820F480400199C969084365
:102D100000900098029909684864FFE70299002032
:102D200081F83C00FFE700208DF80F00FFE79DF8D9
:102D30000F0004B07047000085B003900291FFE7D8
:102D4000039890F83C00012804D1FFE702208DF899
:102D500013007EE00399012081F83C00FFE7FFE7C4
:102D60000399022081F83D000398006840680190B3
:102D70000398006880680090019820F0700001902E
:102D80000298016801980843019001980399096825
:102D90004860039800680021C4F2010188423CD0D9
:102DA000FFE703980068B0F1804F36D0FFE7039843
:102DB000006840F20041C4F2000188422DD0FFE7D4
:102DC0000398006840F60001C4F20001884224D054
:102DD000FFE70398006840F60041C4F20001884212
:102DE0001BD0FFE70398006840F20041C4F20101E4
:102DF000884212D0FFE70398006844F20001C4F251
:102E00000101884209D0FFE70398006841F60001FC
:102E1000C4F2000188420ED1FFE7009820F0800044
:102E20000090029841680098084300900098039928
:102E300009688860FFE70399012081F83D00FFE7FA
:102E40000399002081F83C00FFE700208DF8130073
:102E5000FFE79DF8130005B07047000080B582B011
:102E60000090009820B9FFE701208DF807003FE0AF
:102E7000009890F83D0040B9FFE70099002081F8E4
:102E80003C00009800F038F8FFE70099022081F834
:102E90003D00009951F8040B02F0B2F800990120AE
:102EA00081F84600FFE70099012081F83E00009973
:102EB00081F83F00009981F84000009981F84100B5
:102EC000FFE7FFE70099012081F84200009981F8AF
:102ED0004300009981F84400009981F84500FFE71C
:102EE0000099012081F83D0000208DF80700FFE7E0
:102EF0009DF8070002B080BD80B592B0119000200F
:102F000010900F900E900D900C9011980068002179
:102F1000C4F2010188421BD1FFE7FFE700200B90BC
:102F200043F64400C4F20200016841F0010101606F
:102F3000006800F001000B900B98FFE71920039048
:102F400000221146FEF7F6FF0398FEF7E9FFDAE0EC
:102F50001198006840F20041C4F20001884233D168
:102F6000FFE7FFE700200A9043F64000C4F20200AA
:102F7000016841F002010160006800F002000A905F
:102F80000A98FFE7FFE70020099043F63000C4F2FB
:102F90000200016841F004010160006800F00400D3
:102FA00009900998FFE74FF480700C9002200D9073
:102FB00000210E910F91109040F60000C4F2020023
:102FC0000CA9FEF7D1FC9DE01198006840F60001C5
:102FD000C4F20001884212D1FFE7FFE70020089009
:102FE00043F64000C4F20200016841F004010160B0
:102FF000006800F0040008900898FFE781E011984D
:10300000006840F60041C4F20001884212D1FFE797
:10301000FFE70020079043F64000C4F20200016879
:1030200041F008010160006800F00800079007986F
:10303000FFE765E01198006841F20001C4F2000169
:1030400088421BD1FFE7FFE70020069043F64000CF
:10305000C4F20200016841F010010160006800F054
:10306000100006900698FFE73620029000221146D5
:10307000FEF760FF0298FEF753FF40E011980068EA
:1030800041F20041C4F2000188421BD1FFE7FFE793
:103090000020059043F64000C4F20200016841F0B0
:1030A00020010160006800F0200005900598FFE70E
:1030B0003720019000221146FEF73CFF0198FEF7F1
:1030C0002FFF1BE01198006840F20041C4F201019B
:1030D000884212D1FFE7FFE70020049043F6440046
:1030E000C4F20200016841F002010160006800F0D2
:1030F000020004900498FFE7FFE7FFE7FFE7FFE720
:10310000FFE7FFE7FFE712B080BD000080B586B0A3
:103110000490039100208DF80B00FFE7049890F8CD
:103120003C00012804D1FFE702208DF81700ABE036
:103130000499012081F83C00FFE7FFE70499022091
:1031400081F83D000498006880680190019820F0A3
:1031500077000190019820F47F4001900198049934
:1031600009688860039800680090002872D0FFE723
:10317000009810286ED0FFE7009820286AD0FFE75B
:103180000098302866D0FFE70098402855D0FFE728
:103190000098502837D0FFE70098602840D0FFE71C
:1031A000009870280BD0FFE70098B0F5805F05D03D
:1031B000FFE70098B0F5005F16D052E055E00498A4
:1031C0000068039B5A689968DB6801F0E7FF049880
:1031D000006880680190019840F0770001900198A4
:1031E00004990968886040E004980068039B5A6865
:1031F0009968DB6801F0D2FF04980168886840F4A0
:103200008040886031E004980068039A5168D26871
:1032100002F0B0F904980068502101F0D9FF24E0D1
:1032200004980068039A5168D26802F0CBF90498B8
:103230000068602101F0CCFF17E004980068039A51
:103240005168D26802F096F904980068402101F0B4
:10325000BFFF0AE0049800680399096801F0B8FF0D
:1032600003E001208DF80B00FFE70499012081F8AD
:103270003D00FFE70499002081F83C00FFE79DF83E
:103280000B008DF81700FFE79DF8170006B080BD12
:1032900081B0009001B0704780B582B00190019874
:1032A0000068006900F002010020B0EB510F28D047
:1032B000FFE701980068C06800F002010020B0EB51
:1032C000510F1DD0FFE7019801686FF002000861FF
:1032D000019901200877019800688069800720B172
:1032E000FFE70198FFF7D4FF06E0019800F0CAF964
:1032F000019800F0BFFAFFE7019900200877FFE787
:10330000FFE701980068006900F004010020B0EBBD
:10331000910F29D0FFE701980068C06800F0040110
:103320000020B0EB910F1ED0FFE7019801686FF00D
:1033300004000861019902200877019800688069FB
:1033400010F4407F04D0FFE70198FFF7A1FF06E0EB
:10335000019800F097F9019800F08CFAFFE70199C5
:1033600000200877FFE7FFE701980068006900F098
:1033700008010020B0EBD10F28D0FFE701980068CA
:10338000C06800F008010020B0EBD10F1DD0FFE7AE
:10339000019801686FF0080008610199042008771E
:1033A00001980068C069800720B1FFE70198FFF726
:1033B0006FFF06E0019800F065F9019800F05AFAF5
:1033C000FFE7019900200877FFE7FFE70198006811
:1033D000006900F010010020B0EB111F29D0FFE7B9
:1033E00001980068C06800F010010020B0EB111FC8
:1033F0001ED0FFE7019801686FF010000861019985
:103400000820087701980068C06910F4407F04D054
:10341000FFE70198FFF73CFF06E0019800F032F962
:10342000019800F027FAFFE7019900200877FFE7ED
:10343000FFE7019800680069C00780B1FFE70198C5
:103440000068C068C00748B1FFE7019801686FF0E5
:1034500001000861019800F011FAFFE7FFE7019809
:1034600000680069C1B20020B0EBD11F13D0FFE7A4
:1034700001980068C068C1B20020B0EBD11F09D02C
:10348000FFE7019801686FF0800008610198FFF77D
:10349000F1FBFFE7FFE701980068006900F04001D9
:1034A0000020B0EB911F14D0FFE701980068C068BE
:1034B00000F040010020B0EB911F09D0FFE7019818
:1034C00001686FF040000861019800F0DBF9FFE748
:1034D000FFE701980068006900F020010020B0EBD0
:1034E000511F14D0FFE701980068C06800F0200168
:1034F0000020B0EB511F09D0FFE7019801686FF081
:10350000200008610198FFF7B9FBFFE7FFE702B071
:1035100080BD000080B58AB0099000200890079017
:10352000069005900490099800680021C4F20101FA
:10353000884223D1FFE7FFE70020039043F63000E5
:10354000C4F20200016841F010010160006800F05F
:10355000100003900398FFE74FF4D440049002203A
:1035600005900020069007900120089041F200008D
:10357000C4F2020004A9FEF7F7F980E00998006898
:1035800040F60001C4F20001884222D1FFE7FFE7C4
:103590000020029043F63000C4F20200016841F0BE
:1035A00008010160006800F0080002900298FFE73F
:1035B0004FF480400490022005900021069107916D
:1035C000089040F60040C4F2020004A9FEF7CCF9CE
:1035D00054E00998006840F60041C4F200018842B6
:1035E0001FD1FFE7FFE70020019043F63000C4F24F
:1035F0000200016841F001010160006800F0010073
:1036000001900198FFE702200490059000210691A7
:10361000079108900020C4F2020004A9FEF7A4F963
:103620002BE00998006840F20041C4F20101884291
:1036300022D1FFE7FFE70020009043F63000C4F2FC
:103640000200016841F480710160006800F480703C
:1036500000900098FFE7E0200490022005900020F1
:10366000069007900320089042F20000C4F2020086
:1036700004A9FEF779F9FFE7FFE7FFE7FFE70AB0E4
:1036800080BD000081B0009001B0704780B586B069
:1036900004900391029200208DF80700FFE7049840
:1036A00090F83C00012804D1FFE702208DF81700B4
:1036B00089E00499012081F83C00FFE7FFE70298C8
:1036C00000900C2800F270800099DFE801F0076D8F
:1036D0006D6D206D6D6D3A6D6D6D530004980068D1
:1036E000039901F08BFD04980168886940F0080097
:1036F000886104980168886920F004008861039853
:1037000002690498016888691043886150E0049850
:103710000068039901F0E8FD04980168886940F4A5
:103720000060886104980168886920F4806088617D
:103730000398026904980168886940EA0220886158
:1037400036E004980068039901F048FE0498016887
:10375000C86940F00800C86104980168C86920F091
:103760000400C8610398026904980168C86910439D
:10377000C8611DE004980068039901F0A9FE04984F
:103780000168C86940F40060C86104980168C869AC
:1037900020F48060C8610398026904980168C869D0
:1037A00040EA0220C86103E001208DF80700FFE72E
:1037B000FFE70499002081F83C00FFE79DF807002F
:1037C0008DF81700FFE79DF8170006B080BD0000D8
:1037D00080B582B00090009820B9FFE701208DF8F5
:1037E00007003FE0009890F83D0040B9FFE70099DE
:1037F000002081F83C00009800F038F8FFE70099BD
:10380000022081F83D00009951F8040B01F0F8FB0B
:103810000099012081F84600FFE70099012081F816
:103820003E00009981F83F00009981F8400000991E
:1038300081F84100FFE7FFE70099012081F842008D
:10384000009981F84300009981F84400009981F8BB
:103850004500FFE70099012081F83D0000208DF828
:103860000700FFE79DF8070002B080BD81B000901F
:1038700001B0704781B0009001B0704781B00090F6
:1038800001B0704781B0009001B0704782B00190E4
:10389000ADF8021002B0704781B0009001B07047DF
:1038A00080B592B01190119800680068109011983E
:1038B0000068C0680F901198006840690E90002061
:1038C0000D900C90109800F00F000D900D9888B995
:1038D000FFE79DF84000800600280AD5FFE79DF825
:1038E0003C008006002804D5FFE7119801F002FF94
:1038F000E3E1FFE70D98002800F0C280FFE79DF8A4
:103900003800C00738B9FFE7BDF83C0010F4907FDD
:1039100000F0B680FFE79DF84000C00758B1FFE710
:103920009DF83D00C00730B1FFE71199086C40F0E9
:1039300001000864FFE79DF84000400700280BD510
:10394000FFE79DF83800C00730B1FFE71199086C18
:1039500040F002000864FFE79DF84000800700285F
:103960000BD5FFE79DF83800C00730B1FFE711998C
:10397000086C40F004000864FFE79DF84000000771
:10398000002811D5FFE79DF83C008006002805D4EB
:10399000FFE79DF83800C00730B1FFE71199086CC8
:1039A00040F008000864FFE71198006C002866D01A
:1039B000FFE79DF84000800600280AD5FFE79DF844
:1039C0003C008006002804D5FFE7119801F092FE24
:1039D000FFE7119800684069C0F380100C901198BF
:1039E000006C0007002804D4FFE70C9800283ED0A4
:1039F000FFE7119801F020FE119800684069400629
:103A000000282FD5FFE7FFE7FFE71198006850E88F
:103A1000050F20F040000B90FFE70B99119802680A
:103A200042E805100028F0D1FFE7FFE71198806B0E
:103A300098B1FFE71198816B45F21960C0F600005C
:103A400008651198806BFDF7E1FC28B1FFE711983C
:103A5000806B016D8847FFE703E01198FFF71CFFBB
:103A6000FFE703E01198FFF717FFFFE706E0119863
:103A7000FFF712FF119900200864FFE7FFE71CE140
:103A80001198006B012840F0F880FFE79DF8400096
:103A9000C006002840F1F180FFE79DF83C00C00619
:103AA000002840F1EA80FFE7FFE700200A90119824
:103AB000006800680A901198006840680A900A98A7
:103AC000FFE7119800684069400600287ED5FFE7AF
:103AD0001198806B00684068ADF82600BDF826009C
:103AE000002872D0FFE7BDF826001199898D884221
:103AF0006BDAFFE7BDF826001199C8851198806B35
:103B0000C069B0F5807F58D0FFE7FFE7FFE7119865
:103B1000006850E8030F20F480700890FFE70899D0
:103B20001198026842E803100028F0D1FFE7FFE790
:103B3000FFE7FFE71198006850E8050F20F001004B
:103B40000790FFE707991198026842E805100028DE
:103B5000F0D1FFE7FFE7FFE7FFE71198006850E8C3
:103B6000050F20F040000690FFE7069911980268C3
:103B700042E805100028F0D1FFE7FFE71199202067
:103B800081F83E00119900200863FFE7FFE71198D4
:103B9000006850E8030F20F010000590FFE705993A
:103BA0001198026842E803100028F0D1FFE7FFE710
:103BB0001198806BFDF7B4FBFFE71198818DC28DE2
:103BC000891A89B2FFF762FEFFE776E01199888DC6
:103BD000C98D401AADF812001198C08D00284BD045
:103BE000FFE7BDF81200002846D0FFE7FFE7FFE738
:103BF0001198006850E8030F20F490700390FFE7DD
:103C000003991198026842E803100028F0D1FFE7F9
:103C1000FFE7FFE7FFE71198006850E8050F20F085
:103C200001000290FFE702991198026842E805102E
:103C30000028F0D1FFE7FFE71199202081F83E002E
:103C4000119900200863FFE7FFE71198006850E82A
:103C5000030F20F010000190FFE70199119802680E
:103C600042E803100028F0D1FFE7FFE71198BDF804
:103C70001210FFF70BFEFFE71FE09DF84000000663
:103C800000280AD5FFE79DF83C000006002804D56F
:103C9000FFE7119801F0B6FE0FE09DF840004006E6
:103CA00000280AD5FFE79DF83C004006002804D50F
:103CB000FFE7119801F00AFDFFE712B080BD000098
:103CC00080B582B00090009820B9FFE701208DF800
:103CD00007003EE00098806908B1FFE700E0FFE7D9
:103CE000009890F83D0040B9FFE70099002081F866
:103CF0003C00009800F032F8FFE70099242081F89A
:103D00003D0000980168C86820F40050C860009821
:103D100001F0A2FD00980168086920F49040086154
:103D200000980168486920F02A00486100980168FD
:103D3000C86840F40050C860009900200864009AE8
:103D4000202182F83D10009A82F83E108DF807007D
:103D5000FFE79DF8070002B080BD000080B59AB073
:103D6000199000201890179016901590149019989B
:103D7000006841F20001C4F20101884240F0BB80BA
:103D8000FFE7FFE70020139043F64400C4F202006F
:103D9000016841F010010160006800F0100013900C
:103DA0001398FFE7FFE70020129043F63000C4F2BB
:103DB0000200016841F002010160006800F00200A9
:103DC00012901298FFE7FFE70020119043F63000B1
:103DD000C4F20200016841F001010160006800F0D6
:103DE000010011901198FFE78020149002200790A5
:103DF000159000200B901690032008901790072034
:103E00000990189040F20040C4F2020014A90A91EF
:103E1000FDF7AAFDDDF81CC0089A09980A990B9BCA
:103E20004FF4007ECDF850E0CDF854C016931792B1
:103E300018900020C4F20200FDF796FD0B9940F2A5
:103E40008820C2F200000C9046F2B842C4F202028E
:103E500002604FF00062426040228260C1604FF415
:103E60008062026141618161C16101624162FDF76D
:103E70007FFC18B1FFE7FCF797FCFFE7FFE7199815
:103E800040F28821C2F20001416319988863FFE77C
:103E900040F22820C2F20000069046F24041C4F2EF
:103EA000020101604FF00061416000218160C1604A
:103EB0004FF48062026141618161C16101624162CE
:103EC000FDF756FC18B1FFE7FCF76EFCFFE7FFE7D4
:103ED000199840F22821C2F2000181631998886381
:103EE000FFE72520059000221146FEF723F80598EC
:103EF000FEF716F8DBE01998006844F60001C4F2FA
:103F00000001884235D1FFE7FFE70020109043F61B
:103F10004000C4F20200016841F4802101600068A1
:103F200000F4802010901098FFE7FFE700200F902A
:103F300043F63000C4F20200016841F00401016060
:103F4000006800F004000F900F98FFE74FF4406006
:103F5000149002201590002016900320179007203F
:103F6000189040F60000C4F2020014A9FDF7FCFC12
:103F70009CE01998006841F20041C4F201018842B6
:103F800040F09380FFE7FFE700200E9043F64400E7
:103F9000C4F20200016841F020010160006800F0F5
:103FA00020000E900E98FFE7FFE700200D9043F6EB
:103FB0003000C4F20200016841F040010160006875
:103FC00000F040000D900D98FFE74FF484401490EE
:103FD00002201590002003901690032017900820CF
:103FE000189041F60000C4F2020014A9FDF7BCFCD1
:103FF000039940F2E820C2F20000049046F2284201
:10400000C4F2020202604FF0206242608160C1602F
:104010004FF48062026141618161C161016241626C
:10402000FDF7A6FB18B1FFE7FCF7BEFBFFE7FFE7D4
:10403000199840F2E821C2F200018163199888635F
:10404000FFE740F24830C2F20000029046F2A04181
:10405000C4F2020101604FF02061416040218160A3
:104060000021C1604FF48062026141618161C161E0
:1040700001624162FDF77CFB18B1FFE7FCF794FB9E
:10408000FFE7FFE7199840F24831C2F200014163AF
:1040900019988863FFE74720019000221146FDF739
:1040A00049FF0198FDF73CFFFFE7FFE7FFE71AB084
:1040B00080BD000080B584B002900191ADF802206F
:1040C000029890F83E00202828D1FFE7019820B1FF
:1040D000FFE7BDF8020020B9FFE701208DF80F00CF
:1040E00020E0FFE7029890F83C00012804D1FFE7A8
:1040F00002208DF80F0015E00299012081F83C00A4
:10410000FFE7FFE702990020086302980199BDF8D4
:10411000022001F03FFC8DF80F0003E002208DF833
:104120000F00FFE79DF80F0004B080BD80B584B09C
:104130000390039840F20461C2F2000188422FD13B
:10414000FFE740F20460C2F2000040F27C01C2F2DC
:10415000000102910522FFF7ADFF02980078682860
:104160001DD1FFE741F60040C4F2020001904FF478
:104170008061FDF7D5FD01984FF40061FDF7D0FD9A
:1041800001984FF48051FDF7CBFD40F27C01C2F263
:104190000001002008706420FDF7A2FBFFE7FFE7A5
:1041A00004B080BD80B58AB008900791ADF81A20A0
:1041B000059300200290089890F83D00202840F0D8
:1041C0009080FFE7079820B1FFE7BDF81A0020B9FB
:1041D000FFE701208DF8270087E0FFE7089890F8B7
:1041E0003C00012804D1FFE702208DF827007CE085
:1041F0000899012081F83C00FFE7FFE708990020BB
:1042000008640899212081F83D00FDF7B5FD029072
:10421000BDF81A0008998884BDF81A000899C88466
:1042200008988068B0F5805F09D1FFE708980069B9
:1042300028B9FFE7002004900798039004E007984E
:10424000049000200390FFE7FFE70899002081F821
:104250003C00FFE7FFE70898C08C58B3FFE70898D9
:10426000029B05996A4611608021002201F014FC2E
:1042700020B1FFE703208DF8270036E0049858B9F5
:10428000FFE7039800886FF35F200899096848608A
:1042900003980230039008E00498007808990968B0
:1042A0004860049801300490FFE70899C88C0138F1
:1042B000C884D0E70898029B05996A46116040219E
:1042C000002201F0E9FB20B1FFE703208DF8270071
:1042D0000BE00899202081F83D0000208DF8270090
:1042E00003E002208DF82700FFE79DF827000AB0C1
:1042F00080BD000081B0009001B07047FFE7FEE78D
:1043000080B586B000220092059204920392029238
:1043100040F28800C2F20000019042F20001C4F2B3
:10432000010101604FF480314160826002610276D8
:1043300080F82020C2620121C0F600718162C26053
:104340000121C16180F830204161FCF741FB18B1C7
:10435000FFE7FCF729FAFFE7102002900120039005
:104360000020049040F28800C2F2000002A9FCF78D
:1043700023FA18B1FFE7FCF717FAFFE706B080BD94
:1043800080B586B0002200920592049203920292B8
:1043900040F2D000C2F20000019042F20021C4F2CB
:1043A000010101604FF48031416082600261027658
:1043B00080F820204FF08051C1624FF0006181628F
:1043C000C2600121C16180F830204161FCF700FB2F
:1043D00018B1FFE7FCF7E8F9FFE708200290012099
:1043E00003900020049040F2D000C2F2000002A925
:1043F000FCF7E2F918B1FFE7FCF7D6F9FFE706B0E2
:1044000080BD000080B582B040F21810C2F20000FA
:10441000019046F20041C4F20001016003214160B5
:1044200000218160C1604FF4102202614FF400123C
:1044300042610176012242768176C1760177417729
:10444000FCF77AFD18B1FFE7FCF7AEF9FFE702B021
:1044500080BD000080B582B040F24010C2F2000082
:10446000019046F60001C4F200010160062141609E
:1044700000218160C1604FF4003202614FF40012EC
:1044800042610176012242768176C17601774177D9
:10449000FCF752FD18B1FFE7FCF786F9FFE702B021
:1044A00080BD000080B588B0FFE70020079043F68C
:1044B0003000C4F20200016841F48001016000682C
:1044C00000F4800007900798FFE738200090002252
:1044D00005921146FDF72EFD0098FDF721FD059A86
:1044E000392001901146FDF725FD0198FDF718FDD3
:1044F000059A3A2002901146FDF71CFD0298FDF73F
:104500000FFD059A3B2003901146FDF713FD03981C
:10451000FDF706FD059A452004901146FDF70AFDBA
:104520000498FDF7FDFC059A462006901146FDF71C
:1045300001FD0698FDF7F4FC08B080BD80B598B089
:10454000002017901690159014901390FFE700200C
:10455000129043F63000C4F20200016841F00201FB
:104560000160006800F0020012901298FFE7FFE778
:104570000020119043F63000C4F20200016841F0BF
:1045800040010160006800F0400011901198FFE7C1
:10459000FFE70020109043F63000C4F202000168EB
:1045A00041F001010160006800F0010010901098D6
:1045B000FFE7FFE700200F9043F63000C4F202004F
:1045C000016841F008010160006800F008000F90E8
:1045D0000F98FFE7FFE700200E9043F63000C4F28B
:1045E0000200016841F004010160006800F004006D
:1045F0000E900E98FFE7FFE700200D9043F6300085
:10460000C4F20200016841F480710160006800F4A6
:1046100080700D900D98FFE7FFE700200C9043F6A7
:104620003000C4F20200016841F0800101600068BE
:1046300000F080000C900C98FFE7FFE700200B9043
:1046400043F63000C4F20200016841F0200101602D
:10465000006800F020000B900B98FFE7FFE70020B8
:104660000A9043F63000C4F20200016841F01001E4
:104670000160006800F010000A900A98FFE741F618
:104680000040C4F2020002904FF4E0510191002278
:104690000892FDF759FB089A0020C4F2020004902A
:1046A00010210391FDF750FB089A40F20040C4F23C
:1046B0000200069001210591FDF746FB019B02983F
:1046C000059A0899139314921591169113A90791BD
:1046D000FDF74AF90498059A079913924FF40413C9
:1046E00014931592FDF740F9DDF80CC00498059B72
:1046F0000799089ACDF84CC0149315931692FDF7BC
:1047000033F9059B06980799089A13931493159308
:104710001692FDF729F9089A062009901146FDF72F
:1047200009FC0998FDF7FCFB18B080BD80B540F28C
:10473000A830C2F2000043F20001C4F2000101609F
:104740000321416040F2FF118160FDF71BFB18B1AE
:10475000FFE7FCF729F8FFE780BD000080B582B0D5
:1047600040F2B430C2F20000019043F20001C4F202
:10477000010101604FF48271416000218160C160DC
:104780000161012242614FF4007282611822C2610C
:104790000162416281620A21C162FEF71DF918B10E
:1047A000FFE7FCF701F8FFE702B080BD80B598B0E5
:1047B0000021019117911691159114911391129165
:1047C000119110910F910E910D910C910B910A91F5
:1047D000099108910791069105910491039140F286
:1047E0000C40C2F2000002900022C4F201020260FA
:1047F000A7224260816044F61F62C260016141618C
:104800008161FEF72BFB18B1FFE7FBF7CDFFFFE758
:104810004FF48050149040F20C40C2F2000014A9F2
:10482000FEF774FC18B1FFE7FBF7BEFFFFE740F2AD
:104830000C40C2F20000FEF7CBFF18B1FFE7FBF718
:10484000B3FFFFE700201290139040F20C40C2F239
:10485000000012A9FEF770FA18B1FFE7FBF7A4FFFA
:10486000FFE760200B904FF4FA600C9000220D924D
:104870000E920F921092119240F20C40C2F2000080
:104880000BA9FEF703FF18B1FFE7FBF78DFFFFE76A
:1048900040F20C40C2F200000BA90422FEF7F6FE23
:1048A00018B1FFE7FBF780FFFFE740F20C40C2F2D0
:1048B00000000BA90822FEF7E9FE18B1FFE7FBF79D
:1048C00073FFFFE740F20C40C2F200000BA90C227C
:1048D000FEF7DCFE18B1FFE7FBF766FFFFE70020FD
:1048E000039004900590069007904FF400510891B2
:1048F0000A9040F20C40C2F2000003A9FEF7C2F990
:1049000018B1FFE7FBF750FFFFE740F20C40C2F29F
:104910000000FEF7FFFD18B080BD000080B588B034
:104920000021019107910691059104910391029153
:1049300040F25440C2F2000040F20042C4F20002D1
:104940000260416081604FF6FF72C2600161816167
:10495000FEF784FA18B1FFE7FBF726FFFFE74FF4F5
:104960008050049040F25440C2F2000004A9FEF7C7
:10497000CDFB18B1FFE7FBF717FFFFE72020029000
:104980000020039040F25440C2F2000002A9FEF75A
:10499000D3F918B1FFE7FBF707FFFFE708B080BDC9
:1049A00080B58EB0002100910D910C910B910A9170
:1049B0000991089107910691059104910391029143
:1049C000019140F29C40C2F2000040F60002C4F2A5
:1049D000000202604160816045F20722C26001610D
:1049E00080218161FEF73AFA18B1FFE7FBF7DCFEA0
:1049F000FFE74FF480500A9040F29C40C2F2000062
:104A00000AA9FEF783FB18B1FFE7FBF7CDFEFFE72E
:104A100040F29C40C2F20000FEF7DAFE18B1FFE758
:104A2000FBF7C2FEFFE700200890099040F29C408F
:104A3000C2F2000008A9FEF77FF918B1FFE7FBF703
:104A4000B3FEFFE7602001900020029003900590E4
:104A500040F29C40C2F2000001A90822FEF716FEB7
:104A600018B1FFE7FBF7A0FEFFE740F29C40C2F25F
:104A70000000FEF74FFD0EB080BD000080B58EB087
:104A8000002100910D910C910B910A9109910891CF
:104A9000079106910591049103910291019140F2D1
:104AA000E440C2F2000040F60042C4F2000202609C
:104AB000416081604FF4FA72C26001618161FEF76A
:104AC000CDF918B1FFE7FBF76FFEFFE74FF4805019
:104AD0000A9040F2E440C2F200000AA9FEF716FB79
:104AE00018B1FFE7FBF760FEFFE740F2E440C2F2D7
:104AF0000000FEF76DFE18B1FFE7FBF755FEFFE77C
:104B000000200890099040F2E440C2F2000008A999
:104B1000FEF712F918B1FFE7FBF746FEFFE760204A
:104B20000190002002900390059040F2E440C2F210
:104B3000000001A90422FEF7A9FD18B1FFE7FBF769
:104B400033FEFFE740F2E440C2F20000FEF7E2FC71
:104B50000EB080BD80B582B000210191009140F27D
:104B60002C50C2F2000041F20002C4F200020260C6
:104B700053224260816040F2E732C2608161FEF7F9
:104B80006DF918B1FFE7FBF70FFEFFE7002000907B
:104B9000019040F22C50C2F200006946FEF7CCF8BA
:104BA00018B1FFE7FBF700FEFFE702B080BD000091
:104BB00080B582B000210191009140F27450C2F2A0
:104BC000000041F20042C4F200020260532242603F
:104BD000816040F2E732C2608161FEF73FF918B1AF
:104BE000FFE7FBF7E1FDFFE700200090019040F2B6
:104BF0007450C2F200006946FEF79EF818B1FFE754
:104C0000FBF7D2FDFFE702B080BD000080B598B091
:104C10000021019117911691159114911391129100
:104C2000119110910F910E910D910C910B910A9190
:104C3000099108910791069105910491039140F221
:104C4000BC50C2F20000029040F20042C4F20102E5
:104C50000260A7224260816044F61F62C260016167
:104C600041618161FEF7FAF818B1FFE7FBF79CFD9F
:104C7000FFE74FF48050149040F2BC50C2F20000A5
:104C800014A9FEF743FA18B1FFE7FBF78DFDFFE724
:104C900040F2BC50C2F20000FEF79AFD18B1FFE7E7
:104CA000FBF782FDFFE700201290139040F2BC500A
:104CB000C2F2000012A9FEF73FF818B1FFE7FBF7B8
:104CC00073FDFFE760200B904FF4FA600C90002218
:104CD0000D920E920F921092119240F2BC50C2F2BD
:104CE00000000BA9FEF7D2FC18B1FFE7FBF75CFD53
:104CF000FFE740F2BC50C2F200000BA90422FEF70D
:104D0000C5FC18B1FFE7FBF74FFDFFE740F2BC50D1
:104D1000C2F200000BA90822FEF7B8FC18B1FFE7A9
:104D2000FBF742FDFFE700200390049005900690FA
:104D300007904FF4005108910A9040F2BC50C2F223
:104D4000000003A9FDF79EFF18B1FFE7FBF72CFD5C
:104D5000FFE740F2BC50C2F20000FEF7DBFB18B0E8
:104D600080BD000080B582B040F20460C2F2000055
:104D7000019041F20001C4F2010101604FF4E13100
:104D8000416000218160C16001610C22426181614A
:104D9000C161FEF795FF18B1FFE7FBF705FDFFE7DF
:104DA00002B080BD80B582B040F24860C2F200001F
:104DB000019044F60001C4F2000101604FF4E131BA
:104DC000416000218160C16001610C22426181610A
:104DD000C161FEF775FF18B1FFE7FBF7E5FCFFE7E0
:104DE00002B080BD80B582B040F28C60C2F200009B
:104DF000019041F20041C4F2010101604FF4E13140
:104E0000416000218160C16001610C2242618161C9
:104E1000C161FEF755FF18B1FFE7FBF7C5FCFFE7DF
:104E200002B080BDFFE7FEE7FFE7FEE788B007902E
:104E300006910592079800F0070004900498C0F1CD
:104E40000700052803D3FFE70420019004E004983D
:104E5000C0F107000190FFE7019803900498043027
:104E6000062803D8FFE70020009003E004980338E9
:104E70000090FFE70098029006980399012202FA39
:104E800001F101390840029B984005999A40013A86
:104E90001140084308B07047704700007047000099
:104EA00080B582B0009000980138B0F1807F03D3C4
:104EB000FFE70120019019E0009801384EF214013B
:104EC000CEF2000108604FF0FF300F2100F080FEAD
:104ED0004EF21801CEF20001002008604EF21002DE
:104EE000CEF20002072111600190FFE7019802B0A5
:104EF00080BD000080B5FCF78BFF80BD80B594B00D
:104F000008A83021FBF728FA0020079006900590AA
:104F100004900390FFE70020029043F64000C4F2A3
:104F20000200016841F080510160006800F080508B
:104F300002900298FFE7FFE70020019047F200008F
:104F4000C4F20000016841F480410160006800F48F
:104F5000804001900198FFE7092008904FF48030CD
:104F6000099001200D9002200E904FF480010F91C6
:104F700006211091A821119112900420139008A8E5
:104F8000FDF7CAF918B1FFE7FBF70EFCFFE70F20AA
:104F9000039002200490002005904FF4A05006904A
:104FA0004FF48050079003A80521FCF7E5FF18B1E6
:104FB000FFE7FBF7F9FBFFE714B080BD4EF6885121
:104FC000CEF20001086840F47000086070470000ED
:104FD00080B540F20C40C2F20000FEF75DF980BDE2
:104FE00080B540F22C50C2F20000FEF755F980BDAA
:104FF00080B540F27450C2F20000FEF74DF980BD5A
:1050000083B00290019102980068009002980021FC
:10501000C4F20101884225D0FFE70298B0F1804F29
:1050200020D0FFE7029840F20041C4F2000188421C
:1050300018D0FFE7029840F60001C4F20001884250
:1050400010D0FFE7029840F60041C4F20001884208
:1050500008D0FFE7029840F20041C4F20101884203
:105060000AD1FFE7009820F0700000900198416895
:10507000009808430090FFE702980021C4F2010164
:10508000884255D0FFE70298B0F1804F50D0FFE73B
:10509000029840F20041C4F20001884248D0FFE784
:1050A000029840F60001C4F20001884240D0FFE7B8
:1050B000029840F60041C4F20001884238D0FFE770
:1050C000029840F20041C4F20101884230D0FFE76B
:1050D000029844F20001C4F20101884228D0FFE79F
:1050E000029844F20041C4F20101884220D0FFE757
:1050F000029844F60001C4F20101884218D0FFE78B
:10510000029841F60001C4F20001884210D0FFE786
:10511000029841F60041C4F20001884208D0FFE73E
:10512000029842F20001C4F2000188420AD1FFE76E
:10513000009820F4407000900198C16800980843DE
:105140000090FFE7009820F080000199496908432A
:105150000090009802990860019880680299C862DE
:10516000019800680299886202980021C4F2010146
:10517000884208D0FFE7029840F20041C4F20101E2
:10518000884205D1FFE70198006902990863FFE7AB
:1051900002990120486103B07047000085B0049077
:1051A000039102920193049880680090009820F483
:1051B0007F40009003980299019A41EA022101433D
:1051C00000980843009000980499886005B07047E3
:1051D00083B002900191029880680090009820F0BE
:1051E0007000009001980099084340F0070000907B
:1051F00000980299886003B07047000085B0049061
:1052000003910499086A20F0010008620498006A7A
:105210000190049840680090049880690290029878
:1052200020F070000290029820F003000290039892
:105230000168029808430290019820F00200019052
:105240000398816801980843019004980021C4F2F2
:105250000101884208D0FFE7049840F20041C4F2FF
:10526000010188420ED1FFE7019820F0080001906B
:105270000398C168019808430190019820F0040048
:105280000190FFE704980021C4F20101884208D090
:10529000FFE7049840F20041C4F20101884213D1B3
:1052A000FFE7009820F480700090009820F40070D0
:1052B0000090039841690098084300900398816921
:1052C000009808430090FFE700980499486002980E
:1052D0000499886103984068049948630198049987
:1052E000086205B07047000085B0049003910499EE
:1052F000086A20F0100008620498006A019004987F
:1053000040680090049880690290029820F4E04080
:105310000290029820F4407002900398016802986D
:1053200040EA01200290019820F0200001900398AB
:105330008168019840EA0110019004980021C4F2AC
:105340000101884208D0FFE7049840F20041C4F20E
:10535000010188420FD1FFE7019820F08000019001
:105360000398C168019840EA01100190019820F06B
:1053700040000190FFE704980021C4F20101884237
:1053800008D0FFE7049840F20041C4F201018842CE
:1053900015D1FFE7009820F480600090009820F479
:1053A0000060009003984169009840EA81000090F5
:1053B00003988169009840EA81000090FFE7009817
:1053C0000499486002980499886103984068049998
:1053D000886301980499086205B0704785B004900D
:1053E00003910499086A20F4807008620498006AA6
:1053F00001900498406800900498C0690290029857
:1054000020F070000290029820F0030002900398B0
:105410000168029808430290019820F400700190FE
:1054200003988168019840EA0120019004980021C6
:10543000C4F20101884208D0FFE7049840F200411D
:10544000C4F2010188420FD1FFE7019820F4006007
:1054500001900398C168019840EA012001900198E9
:1054600020F480600190FFE704980021C4F201015C
:10547000884208D0FFE7049840F20041C4F20101DD
:10548000884215D1FFE7009820F4805000900098E2
:1054900020F40050009003984169009840EA011000
:1054A000009003988169009840EA01100090FFE79E
:1054B00000980499486002980499C861039840686C
:1054C0000499C86301980499086205B07047000008
:1054D00085B0049003910499086A20F48050086212
:1054E0000498006A01900498406800900498C0698C
:1054F0000290029820F4E0400290029820F440705C
:10550000029003980168029840EA012002900198F5
:1055100020F40050019003988168019840EA01301E
:10552000019004980021C4F20101884208D0FFE7ED
:10553000049840F20041C4F2010188420BD1FFE718
:10554000009820F48040009003984169009840EA58
:1055500081100090FFE70098049948600298049930
:10556000C861039840680499086401980499086226
:1055700005B0704785B00490039102920498006AC8
:1055800000900499086A20F001000862049880697C
:105590000190019820F0F00001900299019840EAF2
:1055A00001100190009820F00A00009003990098E3
:1055B0000843009001980499886100980499086252
:1055C00005B0704785B00490039102920499086A6F
:1055D00020F0100008620498806901900498006A25
:1055E0000090019820F4704001900299019840EADF
:1055F00001300190009820F0A000009003990098DD
:1056000040EA01100090019804998861009804997B
:10561000086205B07047000080B582B00190019823
:10562000806B009000990020C8850099C88400987C
:10563000FEF732F902B080BD84B00390FFE7FFE7C8
:105640000398006850E8030F20F490700290FFE781
:1056500002990398026842E803100028F0D1FFE79E
:10566000FFE7FFE7FFE70398006850E8050F20F029
:1056700001000190FFE701990398026842E80510D4
:105680000028F0D1FFE7FFE70398006B012814D151
:10569000FFE7FFE7FFE70398006850E8030F20F0FB
:1056A00010000090FFE700990398026842E8031099
:1056B0000028F0D1FFE7FFE7FFE70399202081F8FA
:1056C0003E0003990020086304B0704780B582B0A3
:1056D000019001980168C86820F04000C8600199F5
:1056E000202081F83D000198FEF704FE002002B062
:1056F00080BD000080B586B00490049890F83E000C
:10570000222840F0A180FFE704988068B0F5805F10
:1057100015D1FFE70498006988B9FFE700200390DE
:105720000498806A02900498006840686FF35F20D4
:10573000029908800499886A0230886225E00498FA
:10574000806A03900020029004988068B0F5805F22
:1057500008D0FFE70498806850B9FFE70498006913
:1057600030B9FFE70498006840680399087007E0C3
:1057700004980068406800F07F0003990870FFE714
:105780000499886A01308862FFE70499C88D01385E
:10579000C8850004002853D1FFE704980168C86851
:1057A00020F02000C86004980168C86820F4807068
:1057B000C86004980168486920F0010048610499B4
:1057C000202081F83E000498006B012830D1FFE7CB
:1057D000049900200863FFE7FFE70498006850E899
:1057E000030F20F010000190FFE701990498026870
:1057F00042E803100028F0D1FFE7FFE704980068B3
:105800000068C00600280ED5FFE7FFE700200090E3
:105810000498006800680090049800684068009050
:105820000098FFE7FFE70498818DFEF72FF803E06B
:105830000498FEF77BFCFFE700208DF8170007E0D7
:1058400000208DF8170003E002208DF81700FFE715
:105850009DF8170006B080BD80B586B0059005980C
:105860000068006920F44050059A1168D26810431E
:105870000861059988680B694A69C969184310432A
:105880000843049005980068C06849F20C61884399
:105890000499084305990968C8600598006840693B
:1058A00020F44070059A1168926910434861059888
:1058B000006841F20001C4F20101884209D0FFE70B
:1058C0000598006841F20041C4F20101884204D108
:1058D000FFE7FCF79BFC039003E0FCF785FC0390DB
:1058E000FFE70598C069B0F5004F29D1FFE703989D
:1058F0001921A0FB0101059A1368029353685A000D
:10590000DB0FFAF7B1FC0299864648F21F53C5F245
:10591000EB13AEFB0320420910014FF0640C02FBB5
:105920001CEC322202EBCC02A2FB0332F82303EA86
:10593000521300EB4300C2F342121044886026E089
:1059400003981921A0FB0101059A1368019353687C
:105950009A009B0FFAF788FC0199844648F21F527F
:10596000C5F2EB12ACFB02304309642003FB10CC00
:10597000322000EB0C10A0FB0202F02000EA5210D3
:1059800000EB0310C2F3431210448860FFE706B037
:1059900080BD000083B002900191ADF80220019813
:1059A00002998862BDF8020002998885BDF802005C
:1059B0000299C8850299002008640299222081F882
:1059C0003E00FFE70299002081F83C00FFE70298C3
:1059D000006938B1FFE702980168C86840F4807038
:1059E000C860FFE702980168486940F0010048611B
:1059F00002980168C86840F02000C860002003B029
:105A00007047000083B00190019890F83D00212874
:105A10003AD1FFE701988068B0F5805F13D1FFE7C6
:105A20000198006978B9FFE70198006A0090009832
:105A300000886FF35F200199096848600199086A3E
:105A40000230086208E0019A106A411C1162007875
:105A5000019909684860FFE70199C88C0138C8843A
:105A6000000468B9FFE701980168C86820F0800069
:105A7000C86001980168C86840F04000C860FFE74E
:105A800000208DF80B0003E002208DF80B00FFE7EB
:105A90009DF80B0003B0704780B588B0DDF828C0D2
:105AA000069005918DF813200393FFE70698006890
:105AB000006805990840401AB0FA80F040099DF846
:105AC0001310884249D1FFE70A980130002843D0DB
:105AD000FFE70A9840B1FFE7FCF74EF90399401A37
